:020000020000FC
:100000000C9493251895189518951895189518958A
:100010001895189518951895189518951895189578
:1000200018951895189518950C943604A005520348
:10003000C101E400720039001C000E00070003003B
:10004000010000000000000000000000001F000090
:100050000000001F1F1F0000001F1F1F1F1F001F89
:100060001F1F1F1F1F1F150A150A150A151F000045
:100070001F1F1F1F000000010101010101000001FD
:100080001F1F1F1F01001E3C5A61686F767D848B05
:100090009299A0A7AD000020204572726F72205087
:1000A0004F525425632C20200020202020207069EE
:1000B0006E2023256420202020200020202D3D209C
:1000C000517561736172203D2D2020002020202079
:1000D000762E20312E332E382020202000206874E8
:1000E00074703A2F2F20202020202020200020660E
:1000F000616E64792E75636F7A2E6F7267200020AF
:10010000687474703A2F2F20202020202020200097
:10011000202020202020206D6434752E7275202030
:1001200000430197025A065A06BC1D556D696E20A0
:1001300020202020202020202020256300000000F7
:10014000000000650121015A065A06CC1746696C69
:1001500074657220202020202020202025630000AC
:100160000000000000870143015A065A0624184780
:1001700061696E202020202020202020202025635F
:1001800000000000000000A90165015A065A06554A
:100190001D4D61736B202020202020202020202056
:1001A000256300000000000000310287015A06CBE1
:1001B000010000417564696F2E2E2E202020202022
:1001C0002020256300000000000000ED010F02A9BF
:1001D000015A063B16566F6C2E2076617269617467
:1001E000696F6E202563000000000000000F02CB45
:1001F00001A9015A061E17536F756E642073636858
:10020000656D65202020256300000000000000CB04
:1002100001ED01A9015A0662175468726573686F8F
:100220006C642020202020202563000000000000B6
:10023000009702A9015A06530200004261636B6CE9
:10024000696768742E2E2E20202025630000000090
:100250000000007502750231025A0685164261637C
:100260006B6C69676874206F6E2020202563000026
:1002700000000000005302530231025A06D1164218
:1002800061636B6C69676874206C65762E202563EA
:1002900000000000000000210131025A06B90200EE
:1002A000004857206F7074696F6E732E2E2E2020B9
:1002B000256300000000000000DB02FD0297025AE7
:1002C00006151A466572726974652063616C69620D
:1002D000722E256300000000000000FD02B90297A5
:1002E000025A060F115458206672657175656E6367
:1002F00079202020256300000000000000B902DB07
:100300000297025A067F18436F696C2062616C6124
:100310006E6365202020256300000000000000209F
:100320002121205741524E494E47202121202000B3
:100330002042617474617279206C6F7720212121D1
:100340000020203C2025346420487A203E202020B4
:100350000020202020253364206D412020202020F3
:1003600020002020202025346420487A20202020CE
:1003700020004175746F74756E652C2025336420E0
:100380006D41000000040008000F001C00350066ED
:1003900000C2007201C3024705130A3E13BE242A9D
:1003A00046FC852020202050696E706F696E742095
:1003B000202020000A00170033007100FF003C02DB
:1003C0000605490B5C19F938202020202020202028
:1003D00020202025632532642E2531640020202032
:1003E0002020566F6C756D65202020202000202075
:1003F00020202020202564202020202020202000D4
:100400002020202020426172726965722020202005
:1004100000202020202020202532642020202020A1
:10042000202000566F6C756D65207661726961746D
:10043000696F6E0020202020203C202564203E2073
:10044000202020202000202020204261636B6C6946
:100450006768742020200020202020203C20257365
:10046000203E2020202000202020204261636B6C51
:10047000696768742020200020202020203C20254F
:100480003264203E2020202020002020536F756EF3
:100490006420736368656D65202000202020202083
:1004A000203C202564203E202020202000202020E9
:1004B000205468726573686F6C64202020002020CF
:1004C000202020203C202564203E202020202000C9
:1004D000202020202020204F6666203E2020202043
:1004E00000202047726F756E642066696C746572B7
:1004F000200020202020204E4F524D414C20202013
:10050000202000202020202020464153542020205D
:10051000202020002020202020204761696E2020FC
:1005200020202020002020202020203C2025642086
:100530003E2020202020000A00200065004101FD0F
:1005400003AC0C4628000002000400080010002044
:1005500000400080000001000200040008001000BC
:10056000200040008020202020253464206D56206B
:1005700020202020000000040007000D0018002C9F
:1005800000510093000C01B102E9017B035A06946B
:100590000B1D157F26FF7F02000800200080000051
:1005A0000200080020202020203C20253364203E2B
:1005B000202020202000204175746F74756E652CFA
:1005C000202025336420002043616C6962726174CD
:1005D000696F6E2069732000206E6F7420657865E6
:1005E00063757465642021200000020409142B5DEA
:1005F000C82020203C2025352E3166203E2020209A
:100600002000204175746F74756E652025352E317C
:100610006620004742206E6F7420657865637574AC
:1006200065642C0020616E676C65203D20202535B7
:100630002E316620002020202055706F77206D69B4
:100640006E20202020002020203C202532642E25F2
:10065000642056203E2020202000000000000000E2
:10066000000000000000000000000000000000008A
:1006700000000000000000000000000030313233B4
:1006800034353637383941424344454600303132FB
:100690003334353637383961626364656600286EF5
:1006A000756C6C20706F696E74657229003F3F3FF6
:1006B00000950001CA24C924459924028E24110101
:1006C000240BC923012224019924019724018E249B
:1006D00002222405B22301F62301012403D02302C0
:1006E000012403FD23FBBA93AA939A938A93C8012A
:1006F000B90120E030E0772342F4719561957040B4
:1007000091958195904020E836E1992342F40B01C0
:10071000919581959040BC01C001205C344F0B0144
:100720001C0150E0ECE2F0E0452F8B010E946126B5
:10073000D801452F8C010E946126859195917723E0
:100740003AF4281B390B000E111E2A1A3B0A06C068
:10075000280F391F001A110A2A0E3B1EB001C101D1
:1007600053955C3008F3890189919991A991B991C8
:100770000895007F15B31F70012B05BBAB9A0000D5
:1007800000000000AB9807E511E001501040E9F7C8
:1007900000C008958A93802FAA98000000000000EE
:1007A000E8DF8295807F082FE4DF899108958A939E
:1007B000802FAA9AF2CFAA939A938A9307E919E510
:1007C00021E0015010402040E1F700C00000AA984D
:1007D00000E3CFDF0FEF15E301501040E9F700C051
:1007E00000E3C7DF0FEF15E301501040E9F700C049
:1007F00000E3BFDF0FEF15E301501040E9F700C041
:1008000005B30F70006205BBAB9A0000000000004A
:10081000AB9807E511E001501040E9F700C00FEA7E
:1008200012E001501040E9F7000008E2B3DF00E1F8
:10083000B1DF01E0AFDF0FEF15E301501040E9F742
:1008400000C006E0A7DF0CE0A5DF00E4A3DF86E43C
:1008500090E0A0E4FC010591CF01A9DFAA95D1F7B2
:1008600000E898DF89919991A9910895BA93AA9384
:100870008A93FA93EA933A922A921A920A927A9374
:100880006A935A934A933A932A931A930A938FB787
:10089000909800E00FB9E4E6F4E00285005C02877E
:1008A00014E0019F112D112031F01A95A9F11A952C
:1008B00009F46CC0AFC040855185652F660F660B8B
:1008C0000480158026803780041A150A260A360A05
:1008D0000482158226823782102F007C13951F73A5
:1008E000012B0287779BFECF08B30F6008BB00E0A7
:1008F0000FB91FB10087118700918E0210918F02EE
:10090000012B09F49FC0AEE8B2E00D911C9101509B
:1009100010401C930E9396C040855185652F660F3D
:10092000660B0080118022803380040E151E261E67
:10093000361E0082118222823382779BFECF10E026
:100940001FB93FB1108731870F7309F07BC0008159
:100950001181228133813595279517950795359516
:100960002795179507953595279517950795209104
:1009700091022F7334E0239FD001AE5ABC4F0D93E8
:100980001C9310821182128213825CC040855185B3
:10099000652F660F660B0480158026803780040E55
:1009A000151E261E361E0482158226823782779BEC
:1009B000FECF18B3107F18BB10E01FB93FB11087EE
:1009C00031870F73F9F540919102142F107C042F99
:1009D00003950F73102B10939102048115812681CA
:1009E000378135952795179507953595279517954F
:1009F000079535952795179507954F7324E0429FE6
:100A0000D001AC5ABC4F0D931C93148215821682F0
:100A1000178218C000851185212F220F220B4081DB
:100A2000518162817381401B510B620B720B4083B9
:100A3000518362837383779BFECF00E00FB91FB1B0
:100A400000871187779BFECF909A008511852FB183
:100A5000022B159507951F70008711878FBF09918D
:100A600019912991399149915991699179910990F7
:100A7000199029903990E991F9918991A991B991A9
:100A800018950C942714BA92AA929A928A927A9202
:100A90006A925A924A92BA93AA939A938A938BE053
:100AA00093E0A0E6B2E081C110E000919C02077FD4
:100AB000110F110F110F012B00939C0203FD69C14F
:100AC000FD0146895789652F660F660B008D118DD4
:100AD000212F220F220B8D909C901197A92CAA0CEC
:100AE000AA08BA2C2224B09EB02CA19EB00C929ED3
:100AF000B00C829EB00CA09EA02CB10C919EA00CBC
:100B0000B11C829EA00CB11C909E902CA10CB21C1A
:100B1000819E900CA11CB21C809E802C910CA21C6A
:100B2000B21C42805380652C660C6608762C749E3D
:100B3000702C659E700C569E700C469E700C649EC8
:100B4000602C710C559E600C711C469E600C711CD3
:100B5000549E502C610C721C459E500C611C721CE2
:100B6000449E510C621C721C80189508A608B70898
:100B7000892C9A2CAB2CA59497948794A594979440
:100B80008794A59497948794A59497948794848246
:100B900095824D905C901197652C660C6608762CBA
:100BA000749E702C659E700C569E700C469E700C48
:100BB000649E602C710C559E600C711C469E600CEE
:100BC000711C549E502C610C721C459E500C611C73
:100BD000721C449E510C621C721C402D552DB30199
:100BE00042805380652C660C6608762C709E702CB3
:100BF000619E700C529E700C429E700C609E602C28
:100C0000710C519E600C711C429E600C711C509EB8
:100C1000502C610C721C419E500C611C721C409E39
:100C2000510C621C721C400D551D661D771D452F11
:100C3000562F672F65955795479565955795479515
:100C4000659557954795659557954795468357837D
:100C5000228D338D84013102B001289DA001300323
:100C60007040500D611D721D12037040500D611DCA
:100C7000721D248D358D0681178131023001209F30
:100C8000200130037208500C611C721C12037208A0
:100C9000500C611C721C440D551D661D771D452F9F
:100CA000562F672F659557954795659557954795A5
:100CB000659557954795659557954795428B538B05
:100CC000940104851585DDDEFC01028B138BFD018B
:100CD0002681378106851785D4DEFC01048B158BB0
:100CE000FD012289338900891189CBDE1195019597
:100CF0001040FD01048B158B0E948225FD0126A169
:100D000037A102171307CCF1FC01028913890E9455
:100D1000822510343CF4FC01048915890E94822547
:100D200010346CF0FC010289138915950795028B2C
:100D3000138B0489158915950795048B158BFC0178
:100D400024893589028913890E947303005F1F4F2C
:100D5000159507951595079515950795159507957B
:100D600015950795FD0104A715A7053B20E012077F
:100D700024F0045B104004A715A70489158926A157
:100D800037A1021B130B02A313A31AF400E002A362
:100D900003A30091940212E0019FFC01E00DF11DFC
:100DA0000085F185E02F0995A895009121030F7327
:100DB000109191021F73011709F487C014E0019F7D
:100DC000F001EE5AFC4F2081318102E213E00E94D3
:100DD000A313FC01008311830689202F207C102F90
:100DE00013951F73212B268B0F7314E0019FF001C5
:100DF000EE5AFC4F2281338109E313E00E94A313D2
:100E0000FC010283138340815181652F660F660BBD
:100E1000762F04811581212F220F220B401B510BAD
:100E2000620B720B403000E850070FEF600770074D
:100E30001CF400E010E808C0403000E850076040B3
:100E400070402CF00FEF1FE70D931C9302C04D93E1
:100E50005C93119742815381652F660F660B762F45
:100E600006811781212F220F220B401B510B620B91
:100E7000720B403000E850070FEF600770071CF45A
:100E800000E010E808C0403000E8500760407040C3
:100E900034F00FEF1FE7FD010283138303C0FD0150
:100EA00042835383FC01008111810E94822501331A
:100EB00015474CF4FC01028113810E948225013305
:100EC00015470CF4F1CD11E0F0CD89919991A991DC
:100ED000B991499059906990799089909990A99089
:100EE000B9900895E0E6F2E000E002AB00A301A3B0
:100EF000068F078F04AD03FF0EC000FD0AC005A9D1
:100F0000002339F00EB50D7F0EBD0FB50F7D0FBD5F
:100F1000949804E01EC006A117A1119501951040F8
:100F20002489358902171307B4F004A515A5068F87
:100F3000178F01E000A304AD00FD0AC005A900233E
:100F400039F00EB50D7F0EBD0FB50F7D0FBD949816
:100F500001E004AB089502A113A1012BA9F004A59F
:100F600015A5068F178F01E000A304AD00FD0AC090
:100F700005A9002339F00EB50D7F0EBD0FB50F7D0D
:100F80000FBD949803E0E5CF04AD00FD27C005A98F
:100F9000002321F127A92223D1F00AB51BB5003087
:100FA00036E3164319F000E03BBD0ABD4DE0421B9D
:100FB00000E016E30E94612628B539B520173107F5
:100FC00011F019BD08BD0EB501FD08C008C00EB571
:100FD0000D7F0EBD0FB50F7D0FBD949808950FB511
:100FE00000620FBD0EB502600EBD0895E0E6F2E0AE
:100FF00004AD03FF02C004E018C002A113A1012B3D
:10100000B1F000A111A10836114070F404A515A596
:10101000268D378D200F311F268F378F00A111A10C
:101020000F5F1F4F00A311A303E004AB089506A1B7
:1010300017A11195019510402489358902171307CE
:1010400024F40CE003AB02E004AB0895E0E6F2E028
:1010500004AD03FF02C004E018C002A113A1012BDC
:10106000B1F000A111A10836114070F404A515A536
:10107000268D378D200F311F268F378F00A111A1AC
:101080000F5F1F4F00A311A303E004AB089506A157
:1010900017A111950195104024893589021713076E
:1010A0004CF004A515A5068F178F01E010E000A3F2
:1010B00011A3EBCF03A90A9503AB11F400E004AB35
:1010C00008957A926A925A924A92BA93AA939A93FC
:1010D0008A93A0E6B2E0FD0104AD03FF03C004E083
:1010E00004AB94C000A111A10836114070F404A50E
:1010F00015A5268D378D200F311F268F378F00A124
:1011000011A10F5F1F4F00A311A3068D178D40A1E2
:1011100051A10E94642600939202E0E602A113A16D
:10112000012B09F461C082A942A453A4082FEBD17A
:10113000402F82010E945C26017009F055C0FD011C
:101140004084518462847384082F10E020E030E0F2
:101150000E942E27A801B901820193010E94E5286F
:1011600008F042C0FD0104AD00FD50C09091950211
:10117000992309F44BC0082F8AD02AB53BB5201714
:10118000310711F01BBD0ABD48E0491B0E945C26D7
:10119000980150919602FD016489758947E0451BCD
:1011A00001E010E00E945726601771078CF4729FCF
:1011B000702D639F700D629F710D002D172F48E0F9
:1011C000451B0E945C269801012B11F421E030E0C0
:1011D00039BD28BD0EB501FD19C00FB500620FBDA8
:1011E0000EB502600EBD12C0DC960C9100FD0BC066
:1011F00000919502002339F00EB50D7F0EBD0FB59D
:101200000F7D0FBD949800E0009394020C941F157D
:10121000E0E6F2E004AD03FF2EC000FD37C065A993
:101220006623A1F10AB51BB500302BE11B4119F073
:1012300000E02BBD0ABDE0E5F3E011810081010F64
:10124000008311F00F3010F01195118300E01BE1C5
:10125000408126E931E0349F302D249F310D001963
:10126000130B48E0461B0E94612619BD08BD0EB550
:1012700001FD0CC0B4CE00FD07C00EB50D7F0EBD44
:101280000FB50F7D0FBD949800E004AB0895AC013D
:1012900010919D021695137029F01A9569F01A9510
:1012A000E9F023C02AEE3FEF309F302D209F202D04
:1012B000310D255D3D4E19C00A3590F0043898F483
:1012C0002BE232E1802F90E08A55904000E6099FA2
:1012D000102D089F110D2019310B07C00A3518F485
:1012E0002BE232E102C023EB32E08901CA0108950A
:1012F000DA92CA92BA92AA929A928A927A926A924E
:101300005A924A92BA93AA939A938A93D02E4424DB
:101310005524662477246091820270918302AFE69F
:10132000B4E0EFEAF4E000811181601771071CF06E
:10133000CC24C39402C006E0C02E608371830EE10A
:10134000D01620F48B01000F111F02C000E010E046
:10135000212F220F220B322F0D901D902D903C90AB
:1013600000191109220933094C2D0E949B26000EF9
:10137000111E221E331E3C922E921E920E9201E0EE
:1013800000161404240434042CF04D905D906D90EC
:10139000732C139787E890E04D0104E0800E00E085
:1013A000901E5EE05B01AA0CBB1CFC01319704910E
:1013B000D01630F0FC010491D01610F4050102C0E3
:1013C00000241124212C220C2208322CF40100814B
:1013D000118122813381001A110A220A330A800105
:1013E00091014C2D0E949B26008011802280338029
:1013F000000E111E221E331E0082118222823382B1
:1014000000811181228140165106620673041CF48A
:101410002801622E732C04E0800E00E0901E0196DD
:101420005A9519F60DEAD01620F0660F771F8B013A
:1014300002C000E010E0212F220F220B322FFD010D
:1014400044AD55AD66AD77AD041B150B260B370BC0
:101450004C2D0E949B2644AD400F511F621F731FED
:1014600044AF55AF66AF77AF4416550666067706AC
:1014700014F42A013B0100E1802E8A9490E0042DAF
:1014800005290629072991F0082D10E0000F111FEA
:10149000000F111FFD01E00FF11F4081518162819A
:1014A0007381042F052B062B072B31F4E82DF0E078
:1014B000EC5AFB4F908316C0820193010E94C12613
:1014C000E4E5F4E0E80DF91F20E090831595079519
:1014D000302F312B21F408E0021B008303C0239539
:1014E0002830A0F3882049F689919991A991B99162
:1014F000499059906990799089909990A990B99064
:10150000C990D99008950E3110F410E012C00D3A30
:1015100010F01FE00EC011E0E7E8F0E031972591F0
:10152000021718F02491021720F0139531961F30FE
:10153000A8F3012F0895BA93AA939A938A93F894E3
:101540004EEF5FE760E070E020E030E000E010E0A8
:101550000E94A21F42E050E060E070E025E930E028
:101560000E94A21FEEEFFFE72591349102171307A7
:1015700011F00C947E25A0E6B2E000E912E00E9492
:10158000CB1F002309F040C0FD0100A901FF2AC0C4
:101590000CEF04BB09E915E101501040E9F7000028
:1015A0000E94DB0300E80E94CA03009190020695A6
:1015B0000695037010E00F5B1A930A9307E910E099
:1015C0000E942A2A229600EC0E94CA0300919002EF
:1015D0000295077010E01A930A9309EA10E00E943E
:1015E0002A2A2296FD0100A900FDBC9A00E118B349
:1015F000102718BB0BEF1FE523E0015010402040DF
:10160000E1F700C00000F2CFBC9AC49A07EF1FEBCD
:1016100026E0015010402040E1F700C00000C498CF
:10162000BC98BDD4FD0104AD016004AF78940E9464
:10163000DB0300E80E94CA030BEB10E00E942A2A99
:1016400000EC0E94CA030CEC10E00E942A2A0E94BF
:10165000AA1EA89501B5086101BD01B5076001BDCD
:1016600080E090E04AE050E00E94C125009395029E
:10167000083018F004E00093950244E050E00E9426
:10168000C425FD0106A317A30F3120E0104018F078
:1016900005E006A327A34CE050E00E94C12507AB5C
:1016A000083010F002E007AB4DE050E00E94C12589
:1016B00000AF013810F000E400AF4EE050E00E94AF
:1016C000C12501AF033010F001E001AF4FE050E061
:1016D0000E94C125102F0652053210F4012F01C0BF
:1016E00009E20CBF46E050E00E94C42500A711A704
:1016F0000D541F4F0836114018F009E300A721A729
:1017000068E746E752E000A511A5212F220F220B22
:10171000322F0E94232772E00E94431E41E150E0D5
:101720000E94C12500939D0206950370033020F0AE
:10173000FD0105AD097F05AFFD0105AD03FF0BC040
:101740000FE912E00487158701EB12E0068717877F
:1017500003EC12E00AC005ED12E00487158707EEDE
:1017600012E00687178709EF12E0008B118B05AD99
:1017700004FF02C000AD03BDA895AC010E94C925BD
:1017800000E020783F77003020483F4731F0AC013F
:101790000E94C9250087118704C020EE30E400872D
:1017A0000187228733876CE772E04AE752E00085C1
:1017B00011852285338530580E94431E0896AC015E
:1017C0000E94C425FD0102A713A70F3F1F4F21F45C
:1017D00007E010E002A713A740E150E00E94C125F6
:1017E00003AF04510F3610F00CE303AF4BE050E0B1
:1017F0000E94C12506AB002311F0083010F004E070
:1018000006ABA89500E21EE406A717A701C03BD9C6
:10181000FD0106A517A5012BD1F700E0C8D4009360
:101820009A020E94D01E00E80E94CA030DED10E04B
:101830000E942A2A00EC0E94CA030EEE10E00E94C9
:101840002A2A00E117E2FD0106A717A701C01BD94C
:10185000FD0106A517A5012BD1F700E80E94CA03D8
:101860000FEF10E00E942A2A00EC0E94CA0300E158
:1018700011E00E942A2A00E117E2FD0106A717A73E
:1018800001C001D9FD0106A517A5012BD1F70091D3
:101890009502002321F020ED37E00CE340D0FD015C
:1018A00004AD0E7F04AF8FEF91E001C09A95EBD8A5
:1018B000A0D3FD0104AD01FF03C00E94071E1EC09E
:1018C00003FD1AC002A113A124A135A1A801421B46
:1018D000530B55954795559547955595479555956E
:1018E0004795240F351F24A335A32017310714F47F
:1018F00004A315A304A5FCDC0E946A15082F8A9591
:101900000023A9F600E053D400939A0210919B02A1
:10191000011768F6992351F694E043D0C8CFE02F21
:101920003BBD2ABD48E000919502401B0AB51BB59E
:101930000E945C26A80119BD08BD0EB501FD27C097
:101940000FB500620FBD0EB502600EBD20C0EA9556
:101950000FE12224059F102D212D049F002D110D34
:10196000221D48E0049F012D149F112D0029249F62
:101970001029A801012B11F441E050E059BD48BDE8
:101980000CEC1AE001501040E9F700C0A895EE23D6
:10199000F1F60EB50D7F0EBD0FB50F7D0FBD9498FE
:1019A00008959A938A9300E80E94CA030FE113E016
:1019B0000E942A2A00EC0E94CA0300E313E00E945E
:1019C0002A2AA89500919C0200FDD9C20091950297
:1019D000002309F4D4C263E074EB00E41FE11BBDF3
:1019E0000ABD48E000919502401B0AB51BB50E9454
:1019F0005C26A80119BD08BD0EB56A9501FB36F03D
:101A00000FB500620FBD0EB502600EBD7A95CA011A
:101A10000FE140E0099F102D212D089F002D110D91
:101A2000241F48E0049F012D149F112D0029249F9D
:101A30001029A801012B11F441E050E059BD48BD27
:101A40000CEC1AE001501040E9F700C0A89577238C
:101A5000E9F60EB50D7F0EBD0FB50F7D0FBD949845
:101A600054EB00E41FE11BBD0ABD48E00091950264
:101A7000401B0AB51BB50E945C2619BD08BD2EB5DA
:101A800021FD06C02FB520622FBD2EB522602EBDD0
:101A90005A95C8010FE140E0099F102D212D089FA4
:101AA000002D110D241F48E0049F012D149F112DBE
:101AB0000029249F1029202F212B11F401E010E090
:101AC00019BD08BD2CEC3AE021503040E9F700C0C8
:101AD000A8955523E9F60EB50D7F0EBD0FB50F7D08
:101AE0000FBD94985CE300E41FE11BBD0ABD0091AB
:101AF0009502401B0AB51BB50E945C2619BD08BDA6
:101B00002EB521FD06C02FB520622FBD2EB5226057
:101B10002EBD5A95C8010FE140E0099F102D212DDF
:101B2000089F002D110D241F48E0049F012D149FD4
:101B3000112D0029249F1029202F212B11F401E0C1
:101B400010E019BD08BD2CEC3AE021503040E9F717
:101B500000C0A8955523E9F60EB50D7F0EBD0FB553
:101B60000F7D0FBD949854EB00E41FE11BBD0ABD2F
:101B700000919502401B0AB51BB50E945C2619BD59
:101B800008BD2EB521FD06C02FB520622FBD2EB594
:101B900022602EBD5A95C8010FE140E0099F102D2B
:101BA000212D089F002D110D241F48E0049F012DB9
:101BB000149F112D0029249F1029202F212B11F46F
:101BC00001E010E019BD08BD2CEC3AE02150304096
:101BD000E9F700C0A8955523E9F60EB50D7F0EBDB7
:101BE0000FB50F7D0FBD949854EB08E51BE11BBDAD
:101BF0000ABD00919502401B0AB51BB50E945C26E8
:101C000019BD08BD2EB521FD06C02FB520622FBD20
:101C10002EB522602EBD5A95C8010FE140E0099F04
:101C2000102D212D089F002D110D241F48E0049F29
:101C3000012D149F112D0029249F1029202F212BC5
:101C400011F401E010E019BD08BD2CEC3AE0215080
:101C50003040E9F700C0A8955523E9F60EB50D7F91
:101C60000EBD0FB50F7D0FBD94985CE308E51BE139
:101C70001BBD0ABD00919502401B0AB51BB50E9411
:101C80005C2619BD08BD2EB521FD06C02FB520620A
:101C90002FBD2EB522602EBD5A95C8010FE140E040
:101CA000099F102D212D089F002D110D241F48E0A4
:101CB000049F012D149F112D0029249F1029202FEE
:101CC000212B11F401E010E019BD08BD2CEC3AE025
:101CD00021503040E9F700C0A8955523E9F60EB52C
:101CE0000D7F0EBD0FB50F7D0FBD949854EB08E529
:101CF0001BE11BBD0ABD00919502401B0AB51BB537
:101D00000E945C2619BD08BD2EB521FD06C02FB569
:101D100020622FBD2EB522602EBD5A95C8010FE15D
:101D200040E0099F102D212D089F002D110D241F2B
:101D300048E0049F012D149F112D0029249F102994
:101D4000202F212B11F401E010E019BD08BD2CEC6F
:101D50003AE021503040E9F700C0A8955523E9F654
:101D60000EB50D7F0EBD0FB50F7D0FBD94985CE3D2
:101D700000E41FE11BBD0ABD00919502401B0AB59E
:101D80001BB50E945C2619BD08BD2EB521FD06C0FD
:101D90002FB520622FBD2EB522602EBD5A95C801E9
:101DA0000FE140E0099F102D212D089F002D110DFE
:101DB000241F48E0049F012D149F112D0029249F0A
:101DC0001029202F212B11F401E010E019BD08BDCE
:101DD0002CEC3AE021503040E9F700C0A89555239B
:101DE000E9F60EB50D7F0EBD0FB50F7D0FBD9498B2
:101DF00054EB00E41FE11BBD0ABD00919502401B9E
:101E00000AB51BB50E945C2619BD08BD2EB521FD83
:101E100006C02FB520622FBD2EB522602EBD5A956B
:101E2000C8010FE140E0099F102D212D089F002DD2
:101E3000110D241F48E0049F012D149F112D00292E
:101E4000249F1029202F212B11F401E010E019BD4F
:101E500008BD2CEC3AE021503040E9F700C0A895CD
:101E60005523E9F60EB50D7F0EBD0FB50F7D0FBDE5
:101E700094985CE300E41FE11BBD0ABD009195024C
:101E8000401B0AB51BB50E945C2619BD08BD2EB5C6
:101E900021FD06C02FB520622FBD2EB522602EBDBC
:101EA0005A95C8010FE140E0099F102D212D089F90
:101EB000002D110D241F48E0049F012D149F112DAA
:101EC0000029249F1029202F212B11F401E010E07C
:101ED00019BD08BD2CEC3AE021503040E9F700C0B4
:101EE000A8955523E9F60EB50D7F0EBD0FB50F7DF4
:101EF0000FBD94985FEF00E41FE11BBD0ABD009188
:101F00009502401B0AB51BB50E945C2619BD08BD91
:101F10002EB521FD06C02FB520622FBD2EB5226043
:101F20002EBD5A95C8010FE140E0099F102D212DCB
:101F3000089F002D110D241F48E0049F012D149FC0
:101F4000112D0029249F1029202F212B11F401E0AD
:101F500010E019BD08BD2CEC3AE021503040E9F703
:101F600000C0A8955523E9F60EB50D7F0EBD0FB53F
:101F70000F7D0FBD9498662309F02ECD0DC005E0AE
:101F800047EF5FEB66E0415050406040E1F700C032
:101F90000000A8950A95A1F789919991089500E00C
:101FA0000BBB0ABB08BB0FEB07BB03E005BB0CEF89
:101FB00004BB0DE602BB03E901BB01E50DB901E07D
:101FC0000EB906E806B903EC07B90AE003BF09E257
:101FD0000CBF01E20FBD02E10EBD00E010E009BD43
:101FE00008BD03E605BD13BD15BF1BBF02E009BF59
:101FF0000895BA93AA939A938A9321978E010E9487
:10200000791E0881002309F4CCC080E692E0FC012F
:1020100004AD016004AF0EB50D7F0EBD0FB50F7D91
:102020000FBD949808810A9579F00A9539F10A95BF
:1020300009F449C00A9509F45CC00A9509F45EC028
:102040000A9509F47DC09BC004AD01FF0CC0E0916E
:10205000B104F091B204059114910E947A21FC011F
:1020600004AD04601AC000AD03BDA6A1B7A11297CC
:1020700044F106A117A1015010401BC004AD01FF9F
:102080000EC0E091B104F091B20432960591149122
:102090000E947A21FC0104AD0B7F04AF70C000AD3B
:1020A00003BDA6A1B7A15E9764F406A117A10F5FB7
:1020B0001F4F06A317A3F89444E050E00E94DF25C9
:1020C0007894C3D55CC004AD01FD5CC000AD03BD18
:1020D00005A9002311F407E001C00A9505ABF894A7
:1020E000009195024AE050E00E94DB25789498D553
:1020F00046C004AD01FD46C05FD241C004AD01FF42
:102100001CC0E091B104F091B2040AE516E03696E5
:102110002591349137970217130749F0DC01DC96BB
:102120000C910B7F0C9336960591149126C038962E
:10213000059114910E94832122C00E94621B1FC03E
:1021400004AD01FF11C0E091B104F091B2043496E6
:10215000059114912AE536E02017310771F4FC014E
:1021600004AD0D7F04AF0EC00B7F04AF036004AF5E
:102170000091980203BD05E611E00E947A210881D2
:10218000002379F00E949E1EFC0104AD01FD09C0F0
:102190000E7F04AFCD96FC01008104FD02C000E07B
:1021A00003BD219689919991A991B9910895AC01A6
:1021B000002311F109EC07B920E030E000E1369A84
:1021C0000A953699FECF84B195B191FB0EF49450E7
:1021D000280F391F002399F73595279535952795B1
:1021E0003595279535952795009152041091530404
:1021F000201B310BC90110C003EC07B9000002E03D
:10220000369A0A953699FECF84B195B19695879501
:10221000969587950023A1F78C01CA010895AA928B
:102220009A928A927A926A925A924A92BA93AA930C
:102230009A938A93ACB60E949E1EB8C000E00093A9
:102240009E02B4C00CB7063208F4B0C00CB70A95B1
:1022500018C107E1802E992404E3402E55240CE395
:10226000602E77244CBE07EF1FEB26E00150104094
:102270002040E1F700C00000A89501E098DFD801F8
:102280006BD16CBE07EF1FEB26E0015010402040E1
:10229000E1F700C00000A89501E089DFC8015CD12A
:1022A0008401292D220F220B322F0E942327A801FF
:1022B000B9010AE717E32EE13FE30E94E32740E07C
:1022C00050E060E07FE30E9482270E9430274801AF
:1022D0008A179B070CF4D7C082012301DC01380167
:1022E000680C791C6CBE07EF1FEB26E00150104014
:1022F0002040E1F700C00000A89509EC07B900E014
:1023000010E020E1369A2A953699FECF84B195B136
:1023100091FB0EF49450080F191F222399F7C8015E
:102320009595879595958795959587959595879595
:102330000091520410915304801B910B00E80E94FD
:10234000CA034CB750E04F5F5F4F00E2509F502DE3
:10235000409F402D5129652F660F660B762F00E0B8
:1023600010EC28EA30E00E94C1261A930A9302E694
:1023700013E00E942A2A229600EC0E94CA038C01D4
:10238000159507951A930A9302E713E00E942A2AEB
:10239000229602E0801600E090060CF081CF460CF9
:1023A000571C559447944CBE0E94761F0E944305CB
:1023B00000E80E94CA038CB790E0019600E2909F6B
:1023C000902D809F9129402D592F692F660F660B04
:1023D000762F00E010EC28EA30E00E94C1261A9324
:1023E0000A9301E413E00E942A2A229600EC0E943C
:1023F000CA0301E0DCDE159507951A930A9301E5FF
:1024000013E00E942A2A229603E616E022E00150F9
:1024100010402040E1F700C000001AD3802F0023B5
:1024200009F40CCF0EEF17ED01501040E9F700C092
:1024300000000E9443050CD3801709F0FFCE0E94D4
:10244000761F182F00919E020F3F19F003950093FD
:102450009E021A9509F4FDCE1A9509F4FACE1A9542
:1024600051F01A9509F4EECE1A9509F460C01A9548
:1024700009F465C09BCF0CB70B3408F097CF0CB7AD
:1024800003950CBF93CF83013201CD012801481879
:1024900059084CBE07EF1FEB26E0015010402040CA
:1024A000E1F700C00000A89509EC07B9A0E0B0E092
:1024B00000E1369A0A953699FECFE4B1F5B1F1FB09
:1024C0000EF4F450AE0FBF1F002399F7B595A795F2
:1024D000B595A795B595A795B595A7950091520483
:1024E00010915304A01BB10B00E80E94CA034CB723
:1024F00050E04F5F5F4F00E2509F502D409F402DB6
:102500005129652F660F660B762F00E010EC28EA44
:1025100030E00E94C1261A930A9302E613E00E945B
:102520002A2A229600EC0E94CA038D0129CFF89432
:102530000CB74FE050E00E94DB25789401C0ACBEA0
:1025400089919991A991B9914990599069907990FF
:1025500089909990A99008959A938A93C80100E868
:102560000E94CA03ECB7F0E0319600E2F09FF02D34
:10257000E09FF129402D5F2F6F2F660F660B762F9E
:1025800000E010EC28EA30E00E94C1261A930A937A
:1025900002E613E00E942A2A229600EC0E94CA0357
:1025A000959587959A938A9302E713E00E942A2AC9
:1025B00022968991999108956A925A924A92BA9371
:1025C000AA939A938A9300E80E94CA0303EA13E04D
:1025D0000E942A2A0E949E1E0E94D01EA0E6B2E0FF
:1025E00008C0EBE0F3E0068117810F5F1F4F068301
:1025F00017832ED2802F002341F10EEF17ED0150EB
:102600001040E9F700C000000E94430521D2801766
:10261000E1F40E94761F00919E020F3F29F0FD0118
:10262000FE9603950083A1F00EB50D7F0EBD0FB58C
:102630000F7D0FBD94980E94D01E89919991A99108
:10264000B991499059906990089500E000939E02D5
:102650000E944305FD018289938906A117A1801B71
:10266000910B12F480E090E004EF11E01BBD0ABD75
:1026700000919502002319F0082F092B59F400E06E
:1026800009BD08BD0EB50D7F0EBD0FB50F7D0FBD89
:10269000949822C08C01292F220F220B322F0E94E6
:1026A00023270E94792940E050E062EA72E40E9408
:1026B000E3270E94302748E020919502421B0E94A8
:1026C000612619BD08BD0EB501FD06C00FB500623B
:1026D0000FBD0EB502600EBD00EC0E94CA0303E8F8
:1026E000402E03E0502E00E1602EF201059114917E
:1026F0000817190710F405E001C000E20E94D70393
:1027000002E0400E00E0501E6A9479F7FD0102815C
:102710001381013020E012070CF063CF11230AF07F
:1027200068CFEBE0F3E006811781015010405FCFE6
:102730009A938A93C8010E94D7030E9443058C0193
:102740008991999108957A926A925A924A92BA938B
:10275000AA939A938A93D801190100E010E020E02F
:1027600030E081E002C0843018F4482F50E004C00B
:1027700047E050E0481B5040FD016689762F770FF7
:10278000770B660F771FE60FF71F60817181440F8B
:10279000551FFD01E40FF51F46855785E0E07502E2
:1027A0003001649F200174037E0A500C611C7E1E60
:1027B00056037E0A500C611C7E1E040D151D261D3D
:1027C000371D873040F4FD0146894395468B4730DD
:1027D00014F040E0468B8395883028F2FD0146894D
:1027E000542F550F550B440F551FE40FF51F208232
:1027F0003182A101FD016685778522245702D0012F
:10280000469FC0015603B040900DA11DB21D740338
:10281000B040900DA11DB21D080F191F2A1F3B1FAC
:102820004FE050919902451B0E949B26003040E8E2
:102830001407220532051CF00FEF1FE707C0003018
:1028400014072F4F3F4F14F400E010E8F8C07A92BD
:102850006A925A924A92BA93AA939A938A93F801E7
:10286000A901632F660F660B00851185212F220FAA
:10287000220B322F2224349F302D259F300D169F9E
:10288000300D069F300D249F202D310D159F200DFA
:10289000311D069F200D311D149F102D210D321D5D
:1028A000059F100D211D321D049F002D110D221DAD
:1028B000321D0080118022803380000D111D221DE9
:1028C000331D005C1F4F2F4F3F4F000F012F001F84
:1028D000122F111F232F221F330B82859385A92FBF
:1028E000AA0FAA0BBA2F2224B49FB02DA59FB00D1A
:1028F000969FB00D869FB00DA49FA02DB10D959F02
:10290000A00DB11D869FA00DB11D949F902DA10D0E
:10291000B21D859F900DA11DB21D849F802D910D2C
:10292000A21DB21D46845784652C660C6608762C61
:10293000709E702C619E700C529E700C439E700CA9
:10294000609E602C710C519E600C711C429E600C4C
:10295000711C509E502C610C721C419E500C611CCD
:10296000721C409E510C621C721C80199509A609AC
:10297000B7090480158026803780800D911DA21D27
:10298000B31D80839183A283B38384859585A92F0A
:10299000AA0FAA0BBA2F2224B49FB02DA59FB00D69
:1029A000969FB00D869FB00DA49FA02DB10D959F51
:1029B000A00DB11D869FA00DB11D949F902DA10D5E
:1029C000B21D859F900DA11DB21D849F910DA21D6A
:1029D000B21D402D592FBD0180899189A92FAA0FC1
:1029E000AA0BBA2FB09FB02DA19FB00D929FB00D32
:1029F000839FB00DA09FA02DB10D919FA00DB11D83
:102A0000829FA00DB11D909F902DA10DB21D819FA1
:102A1000900DA11DB21D809F910DA21DB21D4019E8
:102A2000590B6A0B7B0B4483558366837783005C69
:102A30001F4F2F4F000F012F001F122F111F8991C1
:102A40009991A991B9914990599069907990089577
:102A500000E0A19A0000A9982FEA32E0215030400E
:102A6000E9F70000989902C006E002C0869B01E0E9
:102A7000A19800000000A99A000000000000A09AA0
:102A800000000000A8982FEA32E021503040E9F71A
:102A90000000999902C005E002C0869B02E0A09860
:102AA00000000000A89A0000000000008E9A0000BC
:102AB000000096982FEA32E021503040E9F70000FC
:102AC000999902C004E002C0989B03E08E98000030
:102AD000969A08954A92BA93AA939A938A93619781
:102AE00000E80E94CA03442484E594E0A0E6B2E032
:102AF000FC012081FD0102A513A5442D0E945C2646
:102B0000017021F0222311F404E00AC0273038F4C8
:102B1000022F10E00F5F1F4F1595079501C00FEFB3
:102B20000E94D7030E9443054394019600E140169A
:102B3000F8F22AE030E000919A0210E00E94A52508
:102B4000FD0145AD44FF02C04AE201C040E250E051
:102B50003A932A931A930A935A934A9328EC33E0B0
:102B60008E010A5F1F4F0E94142B2696FD0104A1BF
:102B700015A142A153A1242F252B41F40A3020E0B6
:102B8000120714F426E009C020E207C00A3020E052
:102B9000120714F427E001C025E02883DE01119616
:102BA000E6EBF3E029E03297659175910617170778
:102BB0006CF0059014903197001511053CF4461700
:102BC000570714F436E008C037E006C04617570729
:102BD00014F430E201C035E03C93329611962A9508
:102BE00011F7493F58433CF4093F184314F400E2FD
:102BF00003C006E001C007E00A8700EC0E94CA0398
:102C0000DE0180E10D910E94D7030E9443058A9561
:102C1000C9F7619689919991A991B99149900895BF
:102C200000E80E94CA030DED13E00E942A2A00EC7E
:102C30000E94CA030091950210E01A930A930EEEC7
:102C400013E00E942A2A2296089500E80E94CA03EF
:102C500000E014E00E942A2A00EC0E94CA030091BE
:102C60008602109187021A930A9301E114E00E94F0
:102C70002A2A229608958A9321978091960200E845
:102C80000E94CA0303E214E00E942A2A0E949E1EA8
:102C900007C000919602063018F40395009396023F
:102CA00000EC0E94CA0307E010E020919602021B8C
:102CB00010401A930A9304E314E00E942A2A2296F1
:102CC0008E010E94791E08810A9519F30A9549F030
:102CD0000A95F9F20A9529F00A9549F00A9581F0CA
:102CE000DFCF009196020023D9F20A95D7CFF8944E
:102CF000009196024BE050E00E94DB25789402C0E0
:102D0000809396022196899108958A932197009144
:102D10009D0204FF02C081E001C080E000E80E9443
:102D2000CA0306E414E00E942A2A0CC0EDE9F2E08E
:102D3000208124FB20E020F901E0202720FB0081F6
:102D400004F9008300EC0E94CA0300919D0204FF75
:102D500003C008E512E002C00CE512E01A930A93E2
:102D600007E514E00E942A2A22968E01C2D7088124
:102D70000A950450D8F219F00A9551F0E3CFF8946F
:102D800000919D0241E150E00E94DB25789406C04D
:102D9000EDE9F2E080FB108114F91083219689910E
:102DA00008958A9321978091980200E80E94CA03AF
:102DB00007E614E00E942A2AC1D70AC000919802AF
:102DC0000D3718F40C5F009398020091980203BD30
:102DD00000EC0E94CA03009198020695069510E047
:102DE0001A930A9308E714E00E942A2A22968E0179
:102DF00080D708810A9559F00A9501F30A9539F0B0
:102E00000A95E1F20A9559F00A9591F0E1CF009107
:102E10009802043010F00450D6CF00E0D4CFF894DC
:102E2000009198024DE050E00E94DB25789403C0A9
:102E30008093980283BD2196899108958A93219762
:102E400080919D028695837000E80E94CA030AE87B
:102E500014E00E942A2A72D703C0882309F08A95B9
:102E600000EC0E94CA03E82FF0E03196FA93EA934F
:102E70000BE914E00E942A2A22968E013AD7088193
:102E80000A9559F30A9549F00A9539F30A9529F0FC
:102E90000A9539F00A9599F0E3CF823008F78395C7
:102EA000DFCF00919D02097F880F8670082B009369
:102EB0009D02F89441E150E00E94DB257894219630
:102EC000899108959A938A9321978091970200E8B7
:102ED0000E94CA030DEA14E00E942A2A2FD703C0D9
:102EE000882309F08A9500EC0E94CA038823D1F157
:102EF00090E09A938A930EEB14E00E942A2A22967D
:102F00000AB51BB5003026E3164311F02BBD9ABD60
:102F10004DE0481B00E016E30E94612628B539B554
:102F20002017310711F019BD08BD0EB501FD06C00F
:102F30000FB500620FBD0EB502600EBD8E01D9D671
:102F400008810A9569F20A9549F00A9549F20A95AD
:102F500029F00A9599F00A95D9F0C5CF873018F66F
:102F60008395C1CF00ED14E00E942A2A0EB50D7F93
:102F70000EBD0FB50F7D0FBD9498E0CFF8948093F0
:102F80009702009197024CE050E00E94DB25789474
:102F90002196899199910895BA93AA938A9321973A
:102FA000A0E6B2E080919D0283FB80E080F900E81A
:102FB0000E94CA0301EE14E00E942A2ABFD603C071
:102FC000817001E0802700EC0E94CA03882319F079
:102FD00002EF14E002C003E015E00E942A2A8E01ED
:102FE00088D608810A95045058F319F00A9539F1EA
:102FF000EACF882361F00FE912E0FD01048715870D
:1030000001EB12E00687178703EC12E00BC005ED19
:1030100012E0FD010487158707EE12E00687178787
:1030200009EF12E0008B118BDD9680FB0C9103F908
:103030000C93F89441E150E00E94DB2578942196AE
:103040008991A991B99108956A925A924A929A9354
:103050008A93219760909902EBE0F3E08481958157
:103060004680578000E80E94CA0304E115E00E94F0
:103070002A2A64D607C0662029F06A949595879518
:103080005594479400EC0E94CA03E62DF0E0319677
:10309000FA93EA9305E215E00E942A2A22968E010D
:1030A00028D608810A9539F30A9549F00A9519F34B
:1030B0000A9529F00A9561F00A95D1F0E3CF02E074
:1030C000601600F76394880F991F440C551CDACFE3
:1030D000F89460929902009199024EE050E00E94AB
:1030E000DB257894EBE0F3E0848395834682578276
:1030F0002196899199914990599069900895DA9211
:10310000CA92AA925A924A92BA93AA939A938A938B
:10311000219700E0088312D630C000E20E94D70356
:103120000E94430502E0C00E00E0D01EAA9409F000
:10313000F2C000EC0E94CA03BA93AA939A938A93AE
:1031400005E615E00E942A2A24968E01D2D5088130
:10315000033011F0043089F4EDE9F2E020812170B0
:1031600001E0202720FB008100F90083A895F89456
:1031700041E150E00E94DB2578940881053009F494
:10318000D3C0063009F4D0C0209199022395422F74
:10319000EBE0F3E0008111810E946126C801028109
:1031A0001381422F0E946126D801EDE9F2E00081EF
:1031B00000FF8AC000E80E94CA0303E4402E05E035
:1031C000502E07E0A02EAA94F201059114911195BA
:1031D000019510408017910714F405E001C000E24A
:1031E0000E94D7030E9443050EEF400E0FEF501EC2
:1031F000AA2049F7992312F407E001C006E00E94D3
:10320000D703813000E0900714F005E001C000E230
:103210000E94D70307E3402E05E0502E07E0A02EC2
:10322000F201059114910817190714F405E001C083
:1032300000E20E94D7030E94430502E0400E00E036
:10324000501EAA9469F700EC0E94CA0383E495E03B
:1032500007E0402E4A94FC010591149111950195C7
:103260001040A017B10714F405E001C000E20E946D
:10327000D7030E9443050297442061F7BB2312F451
:1032800007E001C006E00E94D703A13000E0B007CC
:1032900014F005E001C000E20E94D70387E395E047
:1032A00007E0402EFC01059114910A171B0714F446
:1032B00005E001C000E20E94D7030E944305029688
:1032C0004A9409F442CFEECF2A2F312F8C01C6D574
:1032D000280160E070E008E813E1159D9001149D5D
:1032E000102D210D361F059D100D211D361F049D2B
:1032F000002D110D261F361F40E050E40E94C1260C
:10330000C801D90100E80E94CA0305E4C02E05E007
:10331000D02E00E1A02EF60105911491041515059B
:1033200008F0FBCE05E0FACE219689919991A991FA
:10333000B99149905990A990C990D99008954A920D
:10334000BA93AA939A938A93D801822F00E80E9495
:10335000CA03882389F185E795E000E1402EFC014E
:10336000259134912E3100E0300744F4FC0132966F
:10337000059114910E31104064F404C0203D07E023
:10338000300774F4FC01329605911491003D17400A
:103390003CF02A173B0714F407E008C006E006C01B
:1033A0002A173B0714F405E001C000E20E94D7038E
:1033B00002964A94C9F1D3CF83EA95E007E0402E04
:1033C0004A94FC0105911491119501951040A017A4
:1033D000B10714F405E001C000E20E94D703029790
:1033E000442071F7BB2312F407E001C006E00E94FD
:1033F000D703A13000E0B00714F005E001C000E2FF
:103400000E94D70387E995E007E0402EFC01059173
:1034100014910A171B0714F405E001C000E20E9492
:10342000D70302964A9491F7F5CB9A928A927A92B0
:103430006A925A924A92BA93AA939A938A9321973C
:10344000A0E6B2E0FD0180A491A4C401A9D476D481
:103450001AC00F5F1F4F00A711A700A511A5053BBC
:10346000104024F00DE41FEF00A711A768E746E71E
:1034700052E000A511A5212F220F220B322F0E940E
:10348000232772E000D420E0FD010681178157DF79
:1034900000EC0E94CA03FD0100A511A51A930A932E
:1034A00005EA15E00E942A2A22968E0122D418816C
:1034B0001A9549F11A9539F11A9549F01A95D9F0EA
:1034C0001A9509F4A1C01A9509F4A8C0DCCF0B30F5
:1034D000FD0100A511A510F00A5001C001501040D7
:1034E00000A711A700A511A50D341F4F0CF0BECFEA
:1034F00004EB10E0B9CF0B30FD0100A511A508F4D5
:10350000A8CF065FA7CF4424552400E61AEEFD019C
:1035100006A717A745D443C0EBD6FD01228133810E
:103520000D911C9111979AD43801103820F00FEFAB
:10353000602E0FE7702E21E0830101DF00ED6016A1
:1035400007E0700658F54614570440F5FD01228146
:1035500033813195219530400D911C9111970E9436
:103560007303C80140969595879595958795959590
:1035700087959595879595958795853B00E090076C
:1035800014F08856914000EC0E94CA039A938A93E3
:1035900006EB15E00E942A2A22962301A895FD0138
:1035A00006A517A5012B09F0B7CFA0D40EE1401650
:1035B00000E0500628F500E80E94CA0307EC15E079
:1035C0000E942A2A00EC0E94CA0308ED15E00E941E
:1035D0002A2A07E919E521E0015010402040E1F7CF
:1035E00000C0000083D400E21EE4FD0106A717A777
:1035F000FD0106A517A5012B09F445CF79D6F8CF13
:10360000FD0180A791A732CFF894FD0100A511A577
:1036100046E050E00E94DF2578940FC0FD0180A6AF
:1036200091A668E75696AD018401292D220F220B41
:10363000322F0E94232772E026D3219689919991F7
:10364000A991B991499059906990799089909990F0
:1036500008954A92BA93AA939A938A93D80100E85C
:103660000E94CA0380EF95E007E0402EFC01049120
:1036700010E001951040A017B10714F405E001C057
:1036800000E20E94D70334D601974A9479F7BB230E
:1036900012F407E001C006E00E94D70389EE95E02E
:1036A00008E0402EFC01049110E00A171B0714F4F7
:1036B00005E001C000E20E94D7031AD601964A94A1
:1036C00089F7A8CAFA92EA92DA92CA929A928A92F0
:1036D0007A926A925A924A92BA93AA939A938A9346
:1036E000219700E6402E02E0502EE0E6F2E0C08492
:1036F000D184E284F3840091980203BD1FD350D398
:103700001CC060E271EC0E948227F20100871187E1
:103710002287338700851185228533854FEF5FEF40
:1037200063E373EC0E94E52840F400E024E333E413
:10373000F2010087018722873387DAD5F2010289F7
:10374000138987DF00EC0E94CA03F201008511850E
:10375000228533853A932A931A930A9301EF15E051
:103760000E942A2A2496F2010289138911231AF051
:1037700028E037E002C028E532E04AB55BB52417FF
:10378000350711F03BBD2ABD0E948225003820E09C
:103790001207E4F44AB55BB556954795212F220FE1
:1037A000220B2224249F202D159F200D149F102DC5
:1037B000210D059F100D211D049F002D110D221DAF
:1037C000000F012F001F122F111F04C00AB51BB5D7
:1037D0001695079547E020919502421B0E946126AD
:1037E00019BD08BD08B519B5012B0EB549F001FD8D
:1037F0000DC00FB500620FBD0EB502600EBD06C054
:103800000D7F0EBD0FB50F7D0FBD94988E0171D247
:10381000402F08810A9509F450C00A9509F44DC05B
:103820000A9549F00A95D9F00A9509F412C10A954A
:1038300009F40AC182CFF201008511852285338502
:103840004A3028F44DEC5CEC6CEC7DEB5CCF443101
:1038500040E050E008F055CF60E87FEB54CFF20134
:1038600000851185228533854A3028F44DEC5CECC7
:103870006CEC7DE309C0443140E050E018F460E8AE
:103880007FE302C060E271E40E948227F2010087B8
:10389000118722873387008511852285338541E092
:1038A00050E064E373E40E94FD2808F046CF33EC57
:1038B000F2015087518762873FCF882499240FEF08
:1038C000F20106A707A780859185A285B38568D2F6
:1038D00048C00ED5F2012281338100811181BED210
:1038E0003801B7DE08EB60160BE07006D0F58614E1
:1038F0009704B8F5F20126813781048115810E9471
:103900007303212F220F220B322F0E9423274DEC0D
:103910005CEC6CE470E40E945C280E948A2540E024
:1039200050E060E271E40E945C28C801D90141E0E6
:1039300050E064E373E40E94FD2830F440E073EC4F
:103940000E948227C801D90100EC0E94CA03BA93E1
:10395000AA939A938A9302E016E00E942A2A249658
:103960004301F20106A517A5012B09F0B2CFBED283
:1039700006E0801600E0900678F500E80E94CA0391
:1039800003E116E00E942A2A00EC0E94CA03F20119
:1039900000851185228533853A932A931A930A93D9
:1039A00004E216E00E942A2A249607E919E521E09C
:1039B000015010402040E1F700C0000097D200E223
:1039C0001EE4F20106A717A7F20106A517A5012B11
:1039D00009F4B3CE8DD4F8CFF20180879187A28706
:1039E000B387F894008511852285338540E050E047
:1039F0000E94E625789400EC0E94CA03F20100853B
:103A00001185228533853A932A931A930A9301EFFD
:103A100015E00E942A2A24966CE772E04AE752E0F9
:103A2000F201008511852285338530582CD100E1C3
:103A300017E2F20106A717A701C05AD4F20106A5A2
:103A400017A5012BD1F717C0F201C086D186E286F7
:103A5000F3860EB50D7F0EBD0FB50F7D0FBD94988B
:103A6000F894F201008511852285338540E050E00D
:103A70000E94E62578940DE3400E00E0501EF2010E
:103A8000008104FD02C000E003BD21968991999157
:103A9000A991B9914990599069907990899099909C
:103AA000C990D990E990F9900895BA93AA939A93FE
:103AB0008A93219780E0A0918A02B0918B023ED137
:103AC0000DC0482F01E010E00E945726E0E6F2E02A
:103AD00022A533A52027312722A733A700E80E947B
:103AE000CA0390E000918A0210918B02492F0E9434
:103AF0005C26017011F004E001C000E00E94D703D1
:103B00009395903178F3F4D300EC0E94CA0390E0CF
:103B1000891711F40EE501C000E20E94D7039395C6
:103B20009031B0F3E5D38E01E4D008810A9549F2D3
:103B30000A9539F20A9539F00A9549F00A9581F00B
:103B40000A9549F0CBCF882349F28A95C7CF8F30A9
:103B500028F68395C3CFA0938A02B0938B020AC044
:103B6000F89400918A0210918B0248E050E00E9484
:103B7000DF2578940C94D1108A93219780919B0231
:103B800000E80E94CA0305E316E00E942A2AD6D064
:103B900007C000919B02053118F00A9500939B0223
:103BA00000EC0E94CA032AE030E000919B0210E082
:103BB0000E94A5253A932A931A930A9306E416E0E5
:103BC0000E942A2A24968E0194D008810A9509F32E
:103BD0000A9549F00A95E9F20A9529F00A9549F003
:103BE0000A9581F0DDCF00919B020238C8F603955B
:103BF000D5CFF89400919B0240E150E00E94DB2574
:103C0000789402C080939B0221968991089500E8E0
:103C10000E94CA0300919C0202FF0AC020E230E029
:103C2000E091B104F091B20432960591149106C06E
:103C30002CE330E00091B1041091B204065F1F4FF5
:103C40003A932A930E942A2A229600EC0E94CA03E1
:103C500000919C0202FF07C02CE330E00091B10408
:103C60001091B20408C020E230E0E091B104F0917C
:103C7000B20405911491065F1F4F3A932A930E9454
:103C80002A2A229608957A926A925A924A92BA936E
:103C9000AA939A938A932A013B014BED5FE069E472
:103CA00070E40E94E32740E050E064E373E40E9484
:103CB0005C28C801D9010E94612A40E050E060E818
:103CC00075E40E94E3270E943027F20100831183EC
:103CD0008C019D010E948F2540E050E060E875E472
:103CE0000E94E3270E943027F301008311830C9484
:103CF0001F15BA93AA938A93D801F8D2802F002374
:103D000099F00EEF17ED01501040E9F700C00000E8
:103D1000EFD2ECD2801741F4E9D08C9300919E024F
:103D20000F3F31F0039502C000E00C9300939E0218
:103D300000919E028991A991B99108950EEF17ED16
:103D400001501040E9F700C00000D2D2CFD20023CA
:103D5000A9F70895192F482F06E806B908EC07B906
:103D6000369A3699FECF20E030E008E0369A0A9580
:103D70003699FECF84B195B191FB0EF49450280F83
:103D8000391F002399F73595279535952795359552
:103D900027952093520430935304842F912F089534
:103DA000AA927A926A925A924A92BA93AA939A9350
:103DB0008A93442455246624772480E090E0A0E090
:103DC000B0E000E1A02E94D20FEA12E001501040C2
:103DD000E9F70000EBE0F3E000811181212F220FD1
:103DE000220B400E511E621E721E02811381212F72
:103DF000220F220B800F911FA21FB21FAA9419F746
:103E0000759467945794479475946794579447941E
:103E1000759467945794479475946794579447940E
:103E200044825582B595A79597958795B595A795A1
:103E300097958795B595A79597958795B595A795E6
:103E4000979587958683978389919991A991B9913F
:103E50004990599069907990A9900895FA2F392E38
:103E6000E82F11231AF4119501951040A80133236E
:103E70001AF4319521953040C901481759071CF4AF
:103E80008A01AC01C801652F660F660B06EF22247C
:103E9000069F302D202D310D059F102D210D321D37
:103EA000049F110D221D321D012F122F232F330FBE
:103EB000330BA92FAA0FAA0B46E64A9F702D602D3F
:103EC000710D499F502D610D721D489F510D621D4E
:103ED000721D452F562F672F770F770B040F151F75
:103EE000261F371F8E2F932DAF2F089520919502F7
:103EF000222339F100E911E01BBD0ABD48E0421B55
:103F00000AB51BB50E945C2619BD08BD0EB501FDA2
:103F100006C00FB500620FBD0EB502600EBD07E909
:103F200019E521E0015010402040E1F700C00000F9
:103F3000A895DED10EB50D7F0EBD0FB50F7D0FBD5F
:103F400094980895392E082EC801F901042F052BE5
:103F5000062B072BE1F08A019B01759168E0015067
:103F600010402040304041E250E1192E880F991F47
:103F700077FB0EF4816017FE02C084279527770F28
:103F80006A9599F7402F412B422B432B31F78C0137
:103F9000802D932D0895F8010FEF07BB00E008BBBB
:103FA0000AE066B30A95E9F70FEF08BB1AE006B31B
:103FB0001A95E9F718EF17BB17E518BB1AE036B3E7
:103FC0001A95E9F71FEA18BB1AE056B31A95E9F7F4
:103FD00010E017BB64FB3EF004FB2EF434FB1EF430
:103FE00054FB0EF011E010FB108110F910836623D2
:103FF00041F40F3F31F4303521F45F3A11F421E000
:104000005EC020E0137F146010836623A1F038E0C7
:104010003A95432F01E010E00E945726162F1023F7
:1040200039F010811F78032F02950077102B108331
:10403000332371F744C00F3FA9F038E0602F60953B
:104040003A95432F062F1FEF0E946126017039F029
:1040500010811F78032F02950077102B10833323D4
:1040600079F72DC03035B1F058E000E530275A958A
:10407000452F01E010E00E945726132F102339F03E
:1040800010811F78052F02950077102B1083552380
:1040900071F715C038E00FEA50273A95432F01E039
:1040A00010E00E945726152F102339F010811F7839
:1040B000032F02950077102B1083332371F70FEF36
:1040C00004BB00E005BB0AE053B30A95E9F70FEF24
:1040D00005BB0AE043B30A95E9F705E505BB0AE02D
:1040E00013B30A95E9F70AEA05BB0AE033B30A9568
:1040F000E9F700E004BB052F0C7F71F4042F0C7F5F
:104100000C3F51F4012F0C7F043531F4032F0C7F49
:10411000083A11F461E001C060E000810D7F660F94
:10412000062B0083222309F4DFC0552331F44F3FCF
:1041300021F4153511F43A3A49F020E0037F086084
:104140000083552338E0B9F5642F8EC00FEF0ABB0A
:1041500000E00BBB02E339B30A95E9F70FEF0BBBA5
:1041600012E309B31A95E9F715E51BBB12E359B33E
:104170001A95E9F71AEA1BBB12E369B31A95E9F736
:1041800010E01ABB333031F40F3F21F4573511F4EE
:104190006B3A39F120E01081137F1083333019F02E
:1041A00058E003E078C00F3F09F05CC0573538E0B5
:1041B000A9F007E550273A95432F01E010E00E944F
:1041C0005726152F102339F010811F78032F0295E1
:1041D0000077102B1083332371F786C00BEA60271A
:1041E0002CC00FEF01BB12BB0AE060B30A95E9F7E0
:1041F0000FEF02BB1AE000B31A95E9F715E512BB01
:104200001AE030B31A95E9F71AEA12BB1AE050B374
:104210001A95E9F710E011BB662341F40F3F31F422
:10422000353521F45A3A11F421E05EC020E01081C6
:104230001C6010836623A1F038E03A95432F01E01B
:1042400010E00E945726162F102339F010811F7896
:10425000032F02950077102B1083332371F744C08E
:104260000F3FA9F038E0602F60953A95432F062F55
:104270001FEF0E946126017039F010811F78032F13
:1042800002950077102B1083332379F72DC0353535
:10429000B1F058E005E530275A95452F01E010E0D0
:1042A0000E945726132F102339F010811F78052FF5
:1042B00002950077102B1083552371F715C038E055
:1042C0000AEA50273A95432F01E010E00E94572652
:1042D000152F102339F010811F78032F02950077D6
:1042E000102B1083332371F7022F08950C94281597
:1042F0000C94430536E00A35130721F00093B1040E
:104300001093B2040895202F212B11F0F801099584
:10431000089500008895FECF0E945329DFD37A01CB
:104320005B016B018824992451D158D140F160E0A0
:1043300070E00E94DB28D1F50889088B0989098B78
:104340000A890A8B0989002309F443C08E149F044B
:104350004CF40CEF80160FEF900624F000E0088B71
:10436000E818F908AAD30A89002389F100E0098B2B
:1043700030C027D10E945C28B1D30AE0A2D347EB1A
:1043800053E46AEB71E529D1A0F324D160E271E432
:1043900024D190F60E945C28A1D301E092D3F5CFFE
:1043A00010D19AD306EF800E0FEF901E40E057EE2B
:1043B0006BED7EE2FAD0A0F309D1F7D008F0BCCFC4
:1043C00060E271E489D30FEF800E901EF5CF01E01B
:1043D0000A8B0889002319F06624772442C09920AB
:1043E000DAF4DED02701E4D06624772402C0D8D0E6
:1043F00064D36BD3861497041CF40E2D0F29B9F7E0
:104400000FEF1FEF04191509801691060CF470C008
:1044100077246624639425C034017194619400E08C
:10442000700A1FC0DDD00E943027402E212F220F9E
:10443000220B322F0E942327A801B901D1D00E945C
:10444000C627A801B90100E010E020E231E444D31E
:10445000042D005DA6D0930101E012D3232B09F4B3
:10446000A7D0E614F704F4F6B5D060EA70E4B5D04E
:10447000F8F5FDD2C6010197FC0100810E3249F02A
:10448000040D00830A3321F400E30083F0D201C05D
:1044900044240197AE16BF0678F340FA4EF508891A
:1044A0000023B1F0C60102C000830197A816B90627
:1044B00058F4FC0102910E32FC01B1F732970081F1
:1044C000FC0100830197F1CF01E0800E941E0DC026
:1044D00001E0C00ED41EC60105C0FC010291FC0122
:1044E00000830197A816B906C0F301E3F501008324
:1044F0000989002321F40CC00FEFC00ED01EF60175
:1045000002910033C9F30E3219F40FEFC00ED01E22
:1045100008890023D1F1F601019399203AF40DE2C4
:1045200041D09194819400E0900A02C00BE23AD00D
:10453000442455240AE0C00ED41C01E0400E00E0E3
:10454000501E51D0405DF60141936F014CD048019F
:10455000012B99F702E0401600E0500674F3320197
:10456000820117D02081830114D0E40DF51D3B9703
:1045700020830FEF400E501E01E0401600E0500671
:104580007CF706EFC00E0FEFD01E8601E3E10C941E
:104590006429119501951040F601E00FF11F08956F
:1045A00000E3F60101936F0108951AD00C94E528F9
:1045B0000E2D0F2919F40A89002311F00EE2F2DF03
:1045C000089549EF52E065E170E5089503D060E891
:1045D0007FE3089540E050E0089502D00C94FD2858
:1045E0008C019D0108954AE050E084010C947C26E2
:1045F0000E945329EF97EF976C9729873A874F834B
:10460000588778015B0100E00D830E8304C060D2FF
:1046100015D205E219D200E00C870D8702C00ED238
:1046200013D2F70105917F01053249F00023B9F754
:104630000D811E81EF96EF966C96E0E1A8CF049174
:10464000053229F300E00C830B830A8309833E01C2
:1046500004E116D20CE716E00A8B1B8B06C0098119
:10466000002311F40491098333D2E0D10052B9F34D
:10467000035059F00850B1F3025019F0035049F0BB
:104680000CC00A8103950A83EFCF0B8103950B833E
:10469000EBCF0C8103950C83E7CF04910A3271F4C0
:1046A000F9D1C080D180DD203AF4D194C19400E0EA
:1046B000D00A0A8103950A830BD214C0CC24DD24CE
:1046C0004AE050E00DC025917F0186010E944D26F1
:1046D000C22EDD24C00ED11E00EDC00E0FEFD01E85
:1046E000A8D188F30A81002311F000E00C839ED149
:1046F0000E32E9F4EDD19AD10A3229F4CBD14080BF
:104700005180E6D117C0442455244AE050E091D1AD
:1047100088F425917F0182010E944D26422E552466
:10472000400E511E00ED400E0FEF501EF0CF4424FE
:104730004A94542C80E07AD10C5421F00C5139F079
:10474000045041F481E0E80E00E0F01E03C001E0F7
:10475000E00EF81EF70105917F010883E2EBF6E019
:104760000C940E2991D12E5F3F4F208331835EF44C
:104770004D815E81652F660F660B53D14083518357
:104780006283638348CF2D813E814BD12083318367
:1047900042CF80D100810C8B4E0105E192D103C143
:1047A00079D160807180062D072931F40EE916E079
:1047B0000C871D870DE0F5C0552022F400E1402E46
:1047C00007E2502E80E090E001C00196F3010191D4
:1047D0003F01002319F084159505BCF376D1430100
:1047E000919581959040680E791EDDC00B81002364
:1047F00021F0042D052909F439D10DE816E00A8BC2
:104800001B8B0881003751F445D180819181A0E054
:10481000B0E000E12FD100E0098330C035D12EF4A3
:104820002C5F20D1A281B38104C02E5F1BD1A0E0F8
:10483000B0E008810F3611F408E0ECCF053749F7F6
:104840000AE0E8CF21D12EF42C5F08D16281738178
:1048500006C02E5F03D1652F660F660B762FCA0147
:10486000DB0177234AF40DE209839095A095B0957A
:1048700081959F4FAF4FBF4F0AE0FCD03E0109E941
:10488000FFD04E0109E91DD1082F092B0A2B0B2B54
:1048900019F001E00B8705C000E00B87042D052906
:1048A000B9F004D1EA89FB89E00DF11D0491F3010F
:1048B00002933F01FBD012D1012B022B032B89F76E
:1048C000552032F40C81002319F00BD101C0E9D03E
:1048D0008E0107561F4FA0D0D4F30B81002309F49B
:1048E00062C00B8500FF5FC00881083711F00835F2
:1048F00049F4EBD0F30108810083E7D000E3F30132
:10490000008351C00F3609F04EC0F301008100331F
:1049100009F449C000E302933F0145C081E00881EA
:1049200002500883042D052929F4A0D008C000E016
:10493000088380E055201AF406E0402E5524A5D0C7
:104940002C5FAAD0008111812281338143DE60E097
:1049500070E00E94E52828F44DE24983732F7058D7
:10496000372F3E0144E1640E751E6C0C7D1C4B819B
:104970004A938A934A814A93B301A201CDDC48014C
:104980000C81002381F0ADD0840146D064F489D03D
:10499000FBCF93D00DEA16E00C871D8766247724A1
:1049A00003E0802E9924240146185708C414D50426
:1049B0001CF480E090E007C09AD0C418D50810E03D
:1049C000C01AD10AC6010A81002321F401C039D0DE
:1049D0000197EAF70981002331F030D003C0F301D9
:1049E00001913F0131D00FEF400E501E5AF00C855F
:1049F0001D85012B23D099F3EC85F12F0591EC87D0
:104A0000FD87F0CF0A81002309F405CE01C019D03B
:104A100001970AF400CEFBCF0619170904151505F6
:104A20000895F8010081F181E02F0895F7010491C4
:104A30000895F701049100530A3008952F813885B5
:104A400008952F81388500E2E985FA8509950D8161
:104A50001E810F5F1F4F0D831E8308951DD040815F
:104A60005181089519D0808191810895552444245D
:104A70004394089510E00E871F87188B198B0895B3
:104A8000600E00E0701E089580FBF5010081118129
:104A900098010895FADF2E5F3F4F20833183F8019C
:104AA000089500E3F30102933F0108954E855F8569
:104AB0006889798995DD0C949E260FEFE00EF01E33
:104AC0000895800E00E0901E08950FEF600EDACF7B
:104AD00001E0E00E00E0F3CF0E94E327C801D90116
:104AE000089505D010E02601401A510A0895098161
:104AF000002311F001E0089500E0089501E010E0C6
:104B00000C94892111231AF41195019510409801F4
:104B10008901089530580E94F325305808953F7751
:104B200041E00C94642A07E50DBF02E00EBFC0EE21
:104B3000D1E00E94FC29002311F00E94472A0E9424
:104B40009B0A0E9489210C9489210E945B293801CB
:104B5000A9010E947C26C801A80189010E944D2656
:104B6000601A710A8C019301E8E00C946C29E199B8
:104B7000FECF08954F5F5F4FFADF4EBB5FBBE09AF9
:104B80000895FADF0DB30895F7DF0DB3F3DF1DB31A
:104B90000895F2DF0DB3EEDF1DB3ECDF2DB3EADFD6
:104BA0003DB308954F5F5F4F4EBB5FBBF894E29AF1
:104BB000E19A0FBE08950FB6DADF0DBBF5CF0FB641
:104BC000D6DF0DBBF1DFD3DF1DBBECCF0FB6CFDFE0
:104BD0000DBBEADFCCDF1DBBE5DFC9DF2DBBE2DFAC
:104BE000C6DF3DBBDFCF0E945B29280139013F773B
:104BF00040E856E968E17BE40E94FD2810F4372D77
:104C000022C024D0372D0E94E528E0F4E89477F8FC
:104C1000372D21D0C801D901A801B9018201930122
:104C20000E94C62713D00E94DB2841F060E87FE392
:104C30008C019D010E948227C801D901B0588C01C6
:104C40009D0101C008D0E8E00C946C2940E050E0E0
:104C500060E070E008950E9430270C9423270D0136
:104C6000DA0140E050E060E070E00E94DB2839F4B7
:104C700000E010E04D934C9320E030E00CC0B9010F
:104C8000660F771F7E57572F550F550B7D935C93FB
:104C90002F7730783F63D0010895149F102D059F22
:104CA000100D049F002D110D0895000F111F4A953E
:104CB000E2F70895169507954A95E2F70895159538
:104CC00007954A95E2F7089500241124EFE0001FAC
:104CD000111F001C111C0416150610F0041A150AE9
:104CE000EA95AAF7001F111FA001009510950895DD
:104CF0005195419550400895FF27552312F4F160D6
:104D0000F7DF112312F4F09507D00E946426F0FD1E
:104D100003D0F1FDEDCF0895119501951040089550
:104D200036952795179507954A95D2F708953595A5
:104D30002795179507954A95D2F7089500241124D1
:104D40001001E0E2EA9592F0001F111F221F331FAD
:104D5000001C111C221C331C0416150626063706DF
:104D600088F3041A150A260A370AECCF001F111F10
:104D7000221F331FA001B101009510952095309599
:104D80000895FF27772312F4F16015D0332312F42E
:104D9000F09509D00E949E26F69508F404D0F69569
:104DA00008F409C0089530952095109501951F4F7E
:104DB0002F4F3F4F089570956095509541955F4FE7
:104DC0006F4F7F4F0895FF27112477FB660F771FE2
:104DD000089409F4771F679517F8EE27002437FB2E
:104DE000220F331F089409F4331F279507F80895FD
:104DF00027FD0EC0EE0F001F111F221F3A95323003
:104E0000B8F7332319F427FD31E002C027FF30E063
:104E1000E03821F400FF08940EF488940F4F1F4FE0
:104E20002F4F3F4F323038F4332319F427FD31E050
:104E300002C027FF30E03F3F29F0220F000C3795DA
:104E400027950895ACC0032E002012F40E94D326AB
:104E5000E02F012F122F232F3EE9D1CF0024F8CFCE
:104E6000BCDF432F4F5748F04F3148F007FC91C04B
:104E70003FE72FEF1FEF0FEF089533278CC0322F3E
:104E8000212F102F0E2F4F5141950E94942607FE7F
:104E900008950C94D326F901EE0FFF1F37FBFF3F57
:104EA00031F0EF2BE12BE02B8894B8940895E02BA0
:104EB000E12B21F008949894B894089598948894DC
:104EC00038940895FB01EE0FFF1F77FBFF3F31F091
:104ED000EF2BE52BE42B8894B8940895E42BE52B75
:104EE00069F3E8CFEFDF68F021F43723262F8A013A
:104EF0000895372FFBCFE6DF20F00BF008957327DE
:104F0000EAF751C0C8DFE8F3B3F361F3DBDFC8F3BE
:104F100083F3A1F358DF401751076207730731F499
:104F2000011411F10024E89488942BC078F0332EFA
:104F3000372F732D322E262F632D312E152F532D03
:104F4000302E042F432D302C012C132C371739F021
:104F5000669557954795F795E0407395F7CFE7FB32
:104F6000EE0FE0E010246AF0EF0F041F151F261F5C
:104F700060F4279517950795E79508F4689433959D
:104F80003ECFEF0B040B150B260B39CFE0E87E2745
:104F9000B9CF302D307822271127002708953FE719
:104FA000302920E8F9CF3FEF2FEFF6CF8BDFD8F392
:104FB000D1F370783727089585DFA8F3A3F3F9CFED
:104FC0003078372793CF67DF70F383F3A9F37ADF65
:104FD00050F3B3F3A9F3F7DE0124E8943F57E04020
:104FE000370FEF1F12F0D9F603C03A3E90F26894E3
:104FF000E0E00A92AA933A93AA2733242224332783
:10500000049FF001059FF00D712D731F149FF00D8B
:10501000711D221C069F700D211C331C159F700DE5
:10502000211C331E249F700D211C331E169F200C43
:10503000311CAA1F259F200C311CA31F269F300C5A
:10504000A11D39915EF43395A695379427947795F1
:10505000F795E79533953130BCF316C0AA2322F0BB
:10506000332351F4339510C0339571F4A99109900D
:1050700096CFA7FD09C03A95EE0FFF1F771F221CA0
:10508000331CAA1F3230A8F7E894FE2B09F068946D
:105090002A2F8101E72FA9910990BACE13DF10F0D2
:1050A0000BF087CF80CF0EDFE9F3E0F3032E072666
:1050B00070CF032E072673CFEEDEA0F37BF399F3B8
:1050C00001DF80F39BF3A9F37EDE012427FD06C0F8
:1050D000000F111F221F3150E040F8CF67FD06C0BE
:1050E000440F551F661F7150F040F8CFE894371BEE
:1050F000EF0B3158EF4F2AF0EE23E9F63F3FD9F29C
:1051000003C03A3EA8F26894E0E0F0E01124139462
:1051100040175107620738F0315008F46894000FC7
:10512000111F221FEE1F041B150B260BEF0B000F88
:10513000111F221FEE1F0A9279E17A95AAF0041737
:1051400015072607EF0730F0041B150B260BEF0B96
:10515000089401C08894111C221C331C001C000FF1
:10516000111F221FEE1FE9CFF0F9E894E22BE12B8B
:10517000E02B09F068940694379427941794E795E8
:1051800008F468947395B9F30990332311F0F0FF94
:1051900009C0369427941794E79508F468943395DA
:1051A0003130BCF3012D122D232D32CE8BCE9894AD
:1051B0000895189408956FDED0F3C1F383DEB8F339
:1051C000041715072607370708957CDEA0F063DE75
:1051D00090F029F0E32FE7273AF47317089572DE71
:1051E00051F04EF008940895041715072607370765
:1051F00019F016F4B8F78894089564DEE0F34BDEF6
:10520000D0F3E7DFC0F30894089575916591559147
:105210004591159011FA259035900895F9DF041BFA
:1052200010E003C0F4DF041B150B20E030E005C0E4
:10523000ECDF041B150B260B370BB8F010FC17C066
:1052400045910590E00FF11F0417100540E0240779
:10525000340758F436F404910024F101E01BF009FE
:105260000994E00FF11F25903590F101099411F494
:10527000D6F7F1CF31960EF0319650E060E070E055
:1052800045914B3F48F089F34F3F29F04E3F11F0D5
:105290007591659155914591041B150B260B370BA4
:1052A00039F318F3E7CFFA92EA92DA92CA92BA92F5
:1052B000AA929A928A927A926A925A924A92BA934D
:1052C000AA939A938A930895FF84EE84DD84CC8414
:1052D000BB84AA84998488847F806E805D804C80A2
:1052E000BB81AA8199818881F0E0EC0FFD1FEF015D
:1052F00008950E945729229741E050E060E070E055
:105300000E94E52860F440E00E94DB2821F402E2DC
:105310006BD03FEF5FC001E267D03FE75BC0AE01FB
:105320000E942F26C801D90143EF54E065E37FE3D3
:105330000E94E52868F437FBAA0FBB1FB395B6950A
:10534000A795B7F908811981015010400883198386
:1053500040E050E060E87FEB43D02801390140E0B5
:1053600050E060E87FE33CD0A801B90182019301DD
:105370000E945C28C801D901A801B9012FD02801D9
:1053800039010881102F110F110B212F312F0E948D
:10539000232748E152E761E37FE320D04801590128
:1053A00042E252E964ED7EE38201930117D04DEDB4
:1053B0005BE96AE27FE316D0A201B3010FD044E0BB
:1053C00050E060E070E40ED0AC01BD0107D0A40154
:1053D000B50108D02296ECE00C9468290C94E327E0
:1053E0008C019D010C948227E3EBF4E00083518350
:1053F0000FEF1FEF2FE7089501E008950E945F2946
:10540000C801D9011A013F7740E856E968E17BE419
:105410000E94FD2838F416D0B38300E010E020E0AD
:1054200030E00DC03B2F0E9430270E9423270AD076
:105430003383A801B9018C019D010E94C627E4E0D5
:105440000C947029F101008311832283089510E0E8
:105450000C94981322979E012E5F3F4F2883398327
:10546000BE0140E050E027E23AE20E94F822229694
:10547000089520E006D0E9F70895259102D0E9F7D4
:1054800008952D9301501040202F212B08958EE573
:1054900096E5FC0105911491FC013296A591B49119
:1054A000FC01349625913491422F432B19F0F901D8
:1054B000E4DF01C0DEDF069616E58A36910748F381
:1054C000089540E00C94642A0E945B292897802F5D
:1054D000B32F442E40E050E060E070E00E94E528E9
:1054E00010F401E001C000E0000F400EBF7743E878
:1054F00059EF62E27FE3082F3B2F80D076D041E066
:105500005CEF6FE777E40E94FD2888F5AE010E940A
:10551000FE296BD0042D10E06BD0488159816A813F
:105520007B8172D0088319832A833B83AE014C5F51
:105530005F4F2A0140E050E060E87EE35FD0A201C7
:105540000E94FE2940E050E060E870E40C811D817B
:105550002E813F8153D0A801B901088119812A8188
:105560003B810E94C6270E943027402E0CC00E941B
:105570003027602E3DD0A801B9018C019D0133D0A8
:10558000460C03E0402240FA3EF4AC01BD0100E0CD
:1055900010E020E83FE327D002E0401608F0B058C2
:1055A0008C019D0129D0280139014BEF57ED6EE1A7
:1055B00079E324D045E656E269E97BEB21D048E562
:1055C00054E363EA7DE31CD041EE5DE565E27FEBE9
:1055D00017D04BED5FE069EC7FE316D00DD0289635
:1055E000E8E00C946C290E94C627C801D9010895EF
:1055F00020E030E00C942E27AC01BD010C94E32791
:1056000003D0A201B301FACF0C9482271B2F6A2F7B
:10561000F901A081B181AD014F5F5F4F408351839C
:105620000C93A62FB12F0895BA93AA9324970A83B7
:105630001B8389019E012A5F3F4F28833983BE0166
:10564000AE014E5F5F4F26E03BE20E94F82220E071
:10565000AA81BB812C932496A991B9910895FA004F
:1056600058026A56630152030000204F6E004F66D5
:1056700066000000000000000000000000009F0223
:10568000B102C302000000000000000000000000A2
:10569000000000000000000000000000000000000A
:1056A000000000000000000000000000C800000032
:1056B00000000000000000000000400080004012D8
:1056C000FF6F0000000000000000000040008000AC
:1056D0004012FF6F000000000000000000004000CA
:1056E00080004012FF6F000000000000000000007A
:1056F00040008000402CFF5A000000000000000025
:10570000000040008000402CFF5A00000000000014
:105710000000000040008000402CFF5A0000000004
:1057200000000000007207F607260861080809005B
:105730000000000000000000000000000000000069
:1057400000002400560AAD1FB12B0000000000002D
:105750000000000000000000002400560AAD1FB148
:105760002B000001189518951895189518951895FF
:1057700018951895189518951895189518951895C1
:1057800018951895189518951895189518951895B1
:1057900018951895189518951895189518951895A1
:1057A0001895189518951895189518951895189591
:107FF0001895189518951895189518951895DBB338
:0400000300000000F9
:00000001FF
