:020000020000FC
:100000000C94D92A1895189518951895189518953F
:100010001895189518951895189518951895189578
:1000200018951895189518950C945604A005520328
:10003000C101E400720039001C000E00070003003B
:10004000010000000000000000000000001F000090
:100050000000001F1F1F0000001F1F1F1F1F001F89
:100060001F1F1F1F1F1F150A150A150A151F000045
:100070001F1F1F1F000000010101010101000001FD
:100080001F1F1F1F01001E3C5A61686F767D848B05
:100090009299A0A7AD20202020203C20253264206A
:1000A0003E202020202000202020202020204F66DD
:1000B0006620202020202000202020202020204FEB
:1000C0006E2020202020202000202020204261635C
:1000D0006B6C696768742020200020202020205647
:1000E0006F6C756D65202020202000566F6C756D3B
:1000F0006520766172696174696F6E00202020202E
:100100004261636B6C696768742020200020205373
:100110006F756E6420736368656D65202000202014
:1001200020205468726573686F6C64202020002062
:1001300020202020204761696E20202020202000E0
:10014000204175746F747261636B207370656564B0
:1001500000202020536D6F6F746820564449202082
:100160002000202020572D616C676F726974686DC4
:10017000202000000020204572726F7220504F52E4
:100180005425632C202000202020202070696E2020
:1001900023256420202020200020202D3D20517583
:1001A00061736172203D2D20200020202020762EBA
:1001B00020312E342E3520202020002068747470C9
:1001C0003A2F2F2020202020202020002066616E42
:1001D00064792E75636F7A2E6F72672000FF01DBE2
:1001E00003660666066122556D696E202020202078
:1001F0002020202020202563000000000000002196
:1002000002DD0166066606BE194261636B6C6967B2
:100210006874206C65762E202563000000000000C5
:10022000004302FF0166066606101B46696C746592
:1002300072202020202020202020256300000000A4
:1002400000000065022102660666067F1B476169A1
:100250006E20202020202020202020202563000048
:1002600000000000008702430266066606A6214DD4
:1002700061736B2020202020202020202020256357
:1002800000000000000000A9026502660666060D77
:10029000225370656564206F66204742202020202D
:1002A000256300000000000000530387026606ED8E
:1002B000020000417564696F2E2E2E202020202020
:1002C0002020256300000000000000ED023103A99A
:1002D000026606DE18566F6C756D652020202020A2
:1002E000202020202563000000000000000F03CB29
:1002F00002A90266065219566F6C2E207661726949
:100300006174696F6E2025630000000000000031F9
:1003100003ED02A90266062C1A536F756E642073F2
:100320006368656D652020202563000000000000E3
:1003300000CB020F03A9026606891A54687265731E
:10034000686F6C64202020202020256300000000BE
:10035000000000DB03A90266067503000048572071
:100360006F7074696F6E732E2E2E2020256300002F
:1003700000000000009703B903530366060D1E46F4
:100380006572726974652063616C6962722E25639F
:1003900000000000000000B9037503530366063433
:1003A000135458206672657175656E63792020203C
:1003B00025630000000000000075039703530366E7
:1003C00006F11B436F696C2062616C616E6365208E
:1003D0002020256300000000000000DD01530366BB
:1003E00006FD03000050726F63657373696E672EBC
:1003F0002E2E20202563000000000000001F041F97
:1004000004DB036606F822536D6F6F746820564450
:10041000492020202020256300000000000000FD6E
:1004200003FD03DB0366064A23572D616C676F7279
:100430006974686D20202020256300000000000002
:1004400000202121205741524E494E472021212092
:1004500020002042617474657279206C6F772021CE
:1004600021210020203C2025346420487A203E2091
:1004700020200020202020253364206D41202020D2
:10048000202020002020202025346420487A2020AD
:10049000202020004175746F74756E652C20253303
:1004A00064206D41000000030007000C00150027C8
:1004B0000048008500F600C50143030406160B6FD3
:1004C00014AB2570452020202050696E706F696E36
:1004D00074202020200004000B001C004B00C800EA
:1004E00014028605B10E1027202020202020202075
:1004F0002020256325342E31665600202020202020
:100500002020202020256325352E32660020202043
:1005100020202020202020256320202020200020B3
:100520002020202042617272696572202020200004
:100530002020202020202025326420202020202060
:100540002000202047726F756E642066696C7465A8
:1005500072200020202020204E4F524D414C202060
:1005600020202000202020202020464153542020FD
:100570002020202000253464206D5600253464207E
:100580006420000000040007000D0018002C00513A
:100590000093000C01B102E9017B035A06940B1D84
:1005A000157F26FF7F020008002000800000020067
:1005B000080020202020203C20253364203E2020DD
:1005C00020202000204175746F74756E652C2020EA
:1005D00025336420002043616C6962726174696F25
:1005E0006E2069732000206E6F74206578656375D6
:1005F0007465642021200000020409142B5DC820CA
:1006000020203C2025352E3166203E202020200051
:10061000204175746F74756E652025352E31662006
:10062000004742206E6F7420657865637574656459
:100630002C0020616E676C65203D202025352E3111
:100640006620002020202055706F77206D696E2075
:10065000202020002020203C2025342E31662056EA
:10066000203E2020200000000000000000000000CC
:10067000000000000000000000000000000000007A
:1006800000000000000000003031323334353637CE
:1006900038394142434445460030313233343536EF
:1006A00037383961626364656600286E756C6C204A
:1006B000706F696E74657229003F3F3F00950001BD
:1006C0000C2A0B2A45DD2902D2291145290B0D29B7
:1006D00001662901DD2901DB2901D22902662905EC
:1006E000F628013A29014529031429024529034125
:1006F00029FBBA93AA939A938A93C801B90120E07F
:1007000030E0772342F47195619570409195819521
:10071000904020E836E1992342F40B0191958195B0
:100720009040BC01C001205C344F0B011C0150E023
:10073000ECE2F0E0452F8B010E94772BD801452F8A
:100740008C010E94772B8591959177233AF4281B91
:10075000390B000E111E2A1A3B0A06C0280F391F3A
:10076000001A110A2A0E3B1EB001C10153955C30DC
:1007700008F3890189919991A991B9910895007F10
:1007800015B31F70012B05BBAB9A000000000000E1
:10079000AB9807E511E001501040E9F700C008955B
:1007A0008A93802FAA98000000000000E8DF82955D
:1007B000807F082FE4DF899108958A93802FAA9A79
:1007C000F2CFAA939A938A9307E919E521E00150A1
:1007D00010402040E1F700C00000AA9800E3CFDFFE
:1007E0000FEF15E301501040E9F700C005B30F709B
:1007F000006305BBAB9A000000000000AB9807E562
:1008000011E001501040E9F700C00FEF15E301506F
:100810001040E9F700C005B30F70006305BBAB9A49
:10082000000000000000AB9807E511E00150104007
:10083000E9F700C00FEF15E301501040E9F700C0E1
:1008400005B30F70006205BBAB9A0000000000000A
:10085000AB9807E511E001501040E9F700C00FEA3E
:1008600012E001501040E9F7000008E299DF00E1D2
:1008700097DF01E095DF0FEF15E301501040E9F736
:1008800000C006E08DDF0CE08BDF00E489DF86E44A
:1008900090E0A0E4FC010591CF018FDFAA95D1F78C
:1008A00000E87EDF89919991A9910895BA93AA935E
:1008B0008A93FA93EA933A922A921A920A927A9334
:1008C0006A935A934A933A932A931A930A938FB747
:1008D000909800E00FB9E8E5F2E0DF01DC960C91BA
:1008E000005C0C9314E0019F112031F01A94B9F1CF
:1008F0001A9409F46DC0AEC046A157A1652F660FCA
:10090000660B0088118822883388041A150A260A83
:10091000360A008A118A228A338A102F007C1395A6
:100920001F73012BDF01DC960C93779BFECF08B37E
:100930000F6008BB00E00FB91FB106A317A3009119
:10094000F7021091F802012B09F49CC0A7EFB2E066
:100950000D911C91015010401C930E9393C046A121
:1009600057A1652F660F660B04841584268437848F
:10097000040E151E261E361E04861586268637860C
:10098000779BFECF10E01FB93FB116A337A30F73BB
:1009900009F078C004851585268537853595279516
:1009A00017950795359527951795079535952795AB
:1009B0001795079521A52F7334E0239FD001AF57DA
:1009C000BC4F0D931C9314861586168617865AC045
:1009D00046A157A1652F660F660B008811882288F3
:1009E0003388040E151E261E361E008A118A228A9E
:1009F000338A779BFECF18B3107F18BB10E01FB966
:100A00003FB116A337A30F73E9F541A5042F007C6E
:100A1000142F13951F73012B01A7008911892289B7
:100A2000338935952795179507953595279517950A
:100A3000079535952795179507954F7324E0429FA5
:100A4000D001AD57BC4F0D931C93108A118A128AA6
:100A5000138A18C006A117A1212F220F220B44854B
:100A6000558566857785401B510B620B720B448759
:100A7000558766877787779BFECF00E00FB91FB158
:100A800006A317A3779BFECF909A06A117A12FB1BB
:100A9000022B159507951F7006A317A38FBF099109
:100AA00019912991399149915991699179910990B7
:100AB000199029903990E991F9918991A991B99169
:100AC00018950C944C16FA92EA92DA92CA92BA925B
:100AD000AA929A928A927A926A925A924A92BA9375
:100AE000AA939A938A93A5ECB2E088E592E030C08D
:100AF00041E064E372E40E94132E28F4FD01508B60
:100B0000518B628B738BE5ECF2E0008911892289AD
:100B1000338944855585668577850E94DC2C3F772F
:100B20004EEC5CEC6CEC7DE30E94132E80F4FD0136
:100B30000089118922893389048715872687378799
:100B400069EE72E047EE52E030580E949C23A8956F
:100B5000009182020F73109181021F73011709F433
:100B6000AAC214E0019FF001EF57FC4F20813181B0
:100B700007E912E00E94C815FC010083118302A559
:100B8000202F207C102F13951F73212B22A70F736A
:100B900014E0019FF001EF57FC4F228133810EEAF0
:100BA00012E00E94C815FC010283138300811181A9
:100BB000212F220F220B322F44815581652F660F82
:100BC000660B041B150B260B360B003040E8140790
:100BD0004FEF240734071CF400E010E808C0003091
:100BE00040E814072040304014F00FEF1FE70D934A
:100BF0001C93119702811381212F220F220B322F78
:100C000046815781652F660F660B041B150B260B5B
:100C1000360B003040E814074FEF240734071CF46C
:100C200000E010E808C0003040E8140720403040E1
:100C300014F00FEF1FE7FD0102831383FC01008115
:100C400011810E94C82A0133154744F4FC01028136
:100C500013810E94C82A0133154714F011E001C026
:100C600010E000910203077F110F110F110F012BEC
:100C70000093020303FD7CC1FD01468D578D652F56
:100C8000660F660B00A111A1212F220F220B8D9060
:100C90009C901197A92CAA0CAA08BA2C2224B09EC9
:100CA000B02CA19EB00C929EB00C829EB00CA09E67
:100CB000A02CB10C919EA00CB11C829EA00CB11C6A
:100CC000909E902CA10CB21C819E900CA11CB21C79
:100CD000809E802C910CA21CB21C42805380652CFB
:100CE000660C6608762C749E702C659E700C569E61
:100CF000700C469E700C649E602C710C559E600CAE
:100D0000711C469E600C711C549E502C610C721C10
:100D1000459E500C611C721C449E510C621C721C3E
:100D200080189508A608B708B594A7949794B59429
:100D3000A7949794B594A7949794B594A7949794EF
:100D4000FC019086A1864D905C901197652C660CF5
:100D50006608762C749E702C659E700C569E700CE6
:100D6000469E700C649E602C710C559E600C711C2C
:100D7000469E600C711C549E502C610C721C459E4A
:100D8000500C611C721C449E510C621C721C402D44
:100D9000552DB301FD0142805380652C660C660819
:100DA000762C709E702C619E700C529E700C429E30
:100DB000700C609E602C710C519E600C711C429EE8
:100DC000600C711C509E502C610C721C419E500C8A
:100DD000611C721C409E510C621C721C400D551D02
:100DE000661D771D75956795579575956795579508
:100DF000759567955795759567955795FC01528739
:100E00006387FD0122A133A1092D1A2D3102B00102
:100E1000299DA00130037040500D611D721D120309
:100E20007040500D611D721D24A135A1FC01028589
:100E3000138531023001209F200130037208500CCD
:100E4000611C721C12037208500C611C721C440D50
:100E5000551D661D771D7595679557957595679511
:100E60005795759567955795759567955795FD01B4
:100E7000528F638F292D3A2D0489158922DEFC01BA
:100E8000068F178F22853385FD010689178919DEA4
:100E9000FC0100A311A3FD01228D338D008D118D66
:100EA00010DE119501951040FD01048F158F28016A
:100EB0000E94C82AFD0106A317A304A515A526A113
:100EC00037A10217130728F4201B310B20A731A7E5
:100ED00003C000E000A701A701E0401600E05006B3
:100EE0002CF000A511A502A713A702C002A703A713
:100EF000FC0140A051A0668C778C83010E94C82A17
:100F000010322CF482010E94C82A10326CF07594C1
:100F1000679475946794FC01668E778E5594479418
:100F20005594479440A251A2FC0120A131A1068D05
:100F3000178D0E947903480101E88016164124F0BC
:100F400000E8800E09EE901EFD0100A511A5012B01
:100F500079F08401005F1F4F15950795159507954A
:100F600015950795159507951595079500AB11AB48
:100F70000091FA0212E0019FFC01E00DF11D0489CD
:100F8000F589E02F0995A0900003AA2009F4DFCD90
:100F9000FD0105AD03FDDBCD0091FA02002309F050
:100FA000D6CDFC01068D178D0E94C82AFD0124A50F
:100FB00035A5220F331F021713070CF4C8CD448543
:100FC00055856685778500E010E020E231E40E94D7
:100FD000982C0E94462C20E2129F102D029F11296E
:100FE000801491060CF0B3CD8401292D220F220B21
:100FF000322F0E94392CA801B90100E010E020E056
:101000003DE30E94F92C28013901AA9429F0AA9401
:1010100059F0AA9489F018C00CEAC02E05ECD02E25
:1010200007EAE02E07E30FC002E8C02E08EAD02E40
:101030000BE7E02E08E307C007E1C02E07EBD02E38
:1010400001E5E02E09E3F02EFD01008811882288D9
:101050003388442D512FB901800191010E94FB2D4D
:10106000A001B10128F4860197010E94982C0BC0C1
:10107000820193010E94FB2D58F4A601B701800163
:1010800091010E94DC2CFD01008B118B228B338B94
:10109000FD01008911892289338940E050E060E038
:1010A00070E00E94FB2D08F023CDFD01408B418BA9
:1010B000428B438B28CD89919991A991B9914990FF
:1010C00059906990799089909990A990B990C99018
:1010D000D990E990F9900895E5ECF2E000A511A50A
:1010E000012B51F106A117A120E020A851A9422D02
:1010F000652F660F660B762F709F702D619F700DA8
:10110000609F602D710D519F600D711D509F502D7E
:10111000610D721F419F500D611D721F409F510D47
:10112000621F721F0482558366837783008711874D
:101130002287238724AA0AC000E004AB0087018726
:1011400002870387048305830683078305AD03FFB6
:1011500002C004E018C0248D358D04A515A5119595
:10116000019510402017310784F405AD00FD0AC039
:1011700006A9002339F00EB50D7F0EBD0FB50F7D0A
:101180000FBD949801E005AB089502A513A5012BAE
:1011900005AD71F000FD0AC006A9002339F00EB5B7
:1011A0000D7F0EBD0FB50F7D0FBD949803E0EBCF03
:1011B00000FD27C006A9002321F120AD2223D1F094
:1011C0000AB51BB5003036E3164319F000E03BBD0D
:1011D0000ABD4DE0421B00E016E30E94772B28B5C4
:1011E00039B52017310711F019BD08BD0EB501FD45
:1011F00008C008C00EB50D7F0EBD0FB50F7D0FBD29
:10120000949808950FB500620FBD0EB502600EBD33
:101210000895E5ECF2E005AD03FF02C004E092C0E2
:1012200002A513A5012B09F446C006AD04FF09C0B1
:1012300000E0008701870287038704830583068314
:10124000078306A117A120E040A951A9652F660FC9
:10125000660B762F709F702D619F700D609F602DC3
:10126000710D519F600D711D509F502D610D721FAA
:10127000419F500D611D721F409F402D510D621FF7
:10128000721F0480158026803780040E151E261ECE
:10129000371E0482158226823782408551856285F9
:1012A0007385400F511F621F721F408751876287ED
:1012B000738703E047C0248D358D04A515A51195CE
:1012C0000195104020173107CCF506A117A120E0A9
:1012D00040A951A9652F660F660B762F709F702D60
:1012E000619F700D609F602D710D519F600D711D8C
:1012F000509F502D610D721F419F500D611D721F37
:10130000409F402D510D621F721F04801580268062
:101310003780040E151E261E371E04821582268273
:1013200037824085518562857385400F511F621F4A
:10133000721F408751876287738705C00CE0009356
:10134000810402E005AB4085518562857385042FD9
:10135000052B062B072B41F004811581268137814F
:101360000E94B42B0093F9020895E5ECF2E005AD7C
:1013700003FF02C004E085C002A513A5012B09F4F8
:1013800046C006AD04FF09C000E000870187028760
:101390000387048305830683078306A117A120E042
:1013A00040A951A9652F660F660B762F709F702D8F
:1013B000619F700D609F602D710D519F600D711DBB
:1013C000509F502D610D721F419F500D611D721F66
:1013D000409F402D510D621F721F04801580268092
:1013E0003780040E151E261E371E048215822682A3
:1013F00037824085518562857385400F511F621F7A
:10140000721F408751876287738703E03AC0248D3B
:10141000358D04A515A511950195104020173107AC
:101420004CF506A117A120E040A951A9652F660F30
:10143000660B762F709F702D619F700D609F602DE1
:10144000710D519F600D711D509F502D610D721FC8
:10145000419F500D611D721F409F510D621F721FF1
:1014600004825583668377830087118722872387C9
:1014700001E007C0009181040A950093810411F4F2
:1014800000E005AB60CF7A926A925A924A92BA9380
:10149000AA939A938A93A5ECB2E0FD0105AD03FFF0
:1014A00002C004E0C3C002A513A5012B09F4B0C01B
:1014B00006A117A120E040A951A9652F660F660B70
:1014C000762F709F702D619F700D609F602D710D44
:1014D000519F600D711D509F502D610D721F419FD6
:1014E000500D611D721F409F402D510D621F721FD4
:1014F0000480158026803780040E151E261E371E98
:1015000004821582268237824085518562857385E3
:10151000400F511F621F721F408751876287738778
:10152000800191010E94B42B0093F9028091F9028D
:10153000E5EC46A457A4E4D1402F82010E94722B0F
:10154000017009F055C0FD01448455846684778498
:10155000082F10E020E030E00E94442CA801B901DF
:10156000820193010E94FB2D08F042C0FD0105ADF0
:1015700000FD5DC09091FB02992309F458C0082F2B
:1015800097D02AB53BB52017310711F01BBD0ABD16
:1015900048E0491B0E94722B98015091FC02FD010A
:1015A000648D758D47E0451B01E010E00E946D2BB6
:1015B000601771078CF4729F702D639F700D629F8E
:1015C000710D002D172F48E0451B0E94722B9801CA
:1015D000012B11F421E030E039BD28BD0EB501FD2D
:1015E00026C00FB500620FBD0EB502600EBD1FC054
:1015F000DD960C9100FD1BC00091FB020023B9F0A9
:101600000EB50D7F0EBD0FB50F7D0FBD94980FC0A9
:1016100005AD00FD0AC006A9002339F00EB50D7F07
:101620000EBD0FB50F7D0FBD949800E005AB0C9477
:10163000D518E5ECF2E005AD03FF2EC000FD37C084
:1016400066A96623A1F10AB51BB500302BE11B4149
:1016500019F000E02BBD0ABDE1E7F3E01181008144
:10166000010F008311F00F3010F01195118300E08D
:101670001BE1408126E931E0349F302D249F310D5C
:101680000019130B48E0461B0E94772B19BD08BDBB
:101690000EB501FD0CC0B6CD00FD07C00EB50D7F27
:1016A0000EBD0FB50F7D0FBD949800E005AB0895FA
:1016B000AC0110910303137029F01A9569F01A9583
:1016C000E9F023C02AEE3FEF309F302D209F202DE0
:1016D000310D255D3D4E19C00A3590F0043898F45F
:1016E0002BE232E190E00A55802F904000E6099FFE
:1016F000102D089F110D2019310B07C00A3518F461
:101700002BE232E102C023EB32E08901CA010895E5
:10171000BA92AA929A928A927A926A925A924A9229
:10172000BA93AA939A938A93B02E490144245524DC
:101730006624772400E010E020E430E40E94982C36
:101740000E94462C0B1510F088249924A4E8B4E0DC
:10175000E4ECF4E0008111818016910618F0AA24CF
:10176000A39402C006E0A02E808291820EE1B01602
:1017700010F4840102C000E010E0212F220F220BA0
:10178000322F4D915D916D917C911397041B150B38
:10179000260B370B4A2D0E94B12B4D911296400F0C
:1017A000511F621F731F7C936E935E934E93413063
:1017B0005040604074052CF04D905D906D90772EF8
:1017C000139767E870E0CD0104965EE0FB01319766
:1017D0000491B01630F0FB010491B01610F48401AE
:1017E00002C000E010E0212F220F220B322FFC015B
:1017F00000801180228033800019110922093309E9
:101800004A2D0E94B12B000E111E221E331E008293
:101810001182228233820081118122814016510679
:10182000620673041CF42801622E732C04966F5F09
:101830007F4F5A9559F60DEAB01610F0840102C098
:1018400000E010E0212F220F220B322FFD0144ADCA
:1018500055AD66AD77AD041B150B260B370B4A2D26
:101860000E94B12B44AD400F511F621F731F44AF44
:1018700055AF66AF77AF441655066606770614F483
:101880002A013B0100E1802E8A9490E0082D10E0AF
:10189000000F111F000F111FFD01E00FF11F40810C
:1018A00051816281738141305907690779074CF092
:1018B000820193010E94D72B003810402040304015
:1018C00034F0E82DF0E0E85AFD4F94A70AC047E055
:1018D00001C04A950695E9F7E82DF0E0E85AFD4F7A
:1018E00044A7882089F689919991A991B991499045
:1018F00059906990799089909990A990B99008959C
:101900000E3110F410E012C00D3A10F01FE00EC0BE
:1019100011E0E7E8F0E031972591021718F02491E3
:10192000021720F0139531961F30A8F3012F089568
:101930005A924A92BA93AA939A938A93F8944EEF42
:101940005FE760E070E020E030E000E010E00E943F
:10195000FB2442E050E060E070E023E731E00E94C9
:10196000FB24EEEFFFE7259134910217130711F0E6
:101970000C94C42A88E592E000E812E00E941C253D
:10198000002309F040C0FC0100A501FF2AC00CEFB4
:1019900004BB09E915E101501040E9F700000E947D
:1019A000E10300E80E94D0030091800206950695AD
:1019B000037010E00F5B1A930A9305E711E00E9491
:1019C000BD2E229600EC0E94D00300918002029569
:1019D000077010E01A930A9307E811E00E94BD2EE9
:1019E0002296FC0100A500FDBC9A00E118B3102767
:1019F00018BB0BEF1FE523E0015010402040E1F73A
:101A000000C00000F2CFBC9AC49A07EF1FEB26E09B
:101A1000015010402040E1F700C00000C498BC987D
:101A2000D3D4A5ECB2E0FD0105AD016005AF78941B
:101A30000E94E10300E80E94D00309E911E00E943E
:101A4000BD2E00EC0E94D0030AEA11E00E94BD2ED8
:101A50000E940324A89501B5086101BD01B5076086
:101A600001BD00E0402E00E0502E4AE050E00E9410
:101A7000F52A0093FB02083018F004E00093FB0203
:101A800044E050E00E94F82AFD0104A715A70F3199
:101A900020E0104018F005E004A725A74CE050E036
:101AA0000E94F52A00AF083010F002E000AF4DE0D0
:101AB00050E00E94F52A01AF013810F000E401AFB8
:101AC0004EE050E00E94F52A02AF033010F001E032
:101AD00002AF4FE050E00E94F52A102F0652053267
:101AE00010F4012F01C009E20CBF46E050E00E9453
:101AF000F82AFC0104A315A30D541F4F083611400A
:101B000018F009E304A325A365EE43EE52E004A117
:101B100015A1212F220F220B322F0E94392C72E0A7
:101B20000E949C2342E150E00E94F52A00930303A7
:101B30000370033020F0FD0106AD0C7F06AFFD0100
:101B400006AD02FF0BC005E013E0048B158B07E127
:101B500013E0068B178B09E213E00AC00BE313E0D6
:101B6000048B158B0DE413E0068B178B0FE513E048
:101B7000008F118F06AD03FF02C001AD03BDA89514
:101B8000A2010E94FD2A00E020783F770030204823
:101B90003F4731F0A2010E94FD2A0487158704C047
:101BA00020EE30E40487058726873787048515856E
:101BB00026853785008B118B228B338B69EE72E083
:101BC00047EE52E030580E949C2308E0400E00E0AF
:101BD000501EA2010E94F82AFD0106A717A70F3F79
:101BE0001F4F21F407E010E006A717A741E150E0DE
:101BF0000E94F52A0093830204510F3618F00CE37B
:101C0000009383024BE050E00E94F52A07AB0023CB
:101C100011F0083010F004E007AB40E150E00E9402
:101C2000F52A03AF043010F003E003AFA89500E2FB
:101C30001EE402AB13AB02C00E946305FD0102A9C2
:101C400013A9012BC9F700E0D7D4009301030E9428
:101C5000292400E80E94D0030BEB11E00E94BD2E66
:101C600000EC0E94D0030CEC11E00E94BD2E00E1BC
:101C700017E2FD0102AB13AB02C00E946305FD0138
:101C800002A913A9012BC9F70091FB02002321F03F
:101C900020ED37E00CE358D0FD0105AD0E7F05AF18
:101CA00044244A945524539401C05A940E946305D5
:101CB000B5D3FD0105AD01FF03C00E94BC2230C0B9
:101CC00003FD2CC002A513A5FC0122A133A1A8018C
:101CD000421B530B559547955595479555954795F7
:101CE00055954795240F351F22A333A3201731079D
:101CF00010F402A313A3FD0126AD24FF02C0980136
:101D000002C020A531A506AD05FF02C004A901C08F
:101D100000A94485558566857785FADC0E9487177A
:101D2000042D4A94002311F600E066D400930103C9
:101D300010918302011708F0B9CF552009F0B5CFF3
:101D400004E0502E43D0B2CFE02F3BBD2ABD48E087
:101D50000091FB02401B0AB51BB50E94722BA80123
:101D600019BD08BD0EB501FD27C00FB500620FBD3E
:101D70000EB502600EBD20C0EA950FE12224059F3A
:101D8000102D212D049F002D110D221D48E0049FD0
:101D9000012D149F112D0029249F1029A801012B2A
:101DA00011F441E050E059BD48BD0CEC1AE001507F
:101DB0001040E9F700C0A895EE23F1F60EB50D7FAF
:101DC0000EBD0FB50F7D0FBD949808959A938A9319
:101DD00000E80E94D00301E414E00E94BD2E00EC54
:101DE0000E94D00302E514E00E94BD2EA895009148
:101DF000020300FDD9C20091FB02002309F4D4C202
:101E000063E074EB00E41FE11BBD0ABD48E00091F4
:101E1000FB02401B0AB51BB50E94722BA80119BD1D
:101E200008BD0EB56A9501FB36F00FB500620FBD17
:101E30000EB502600EBD7A95CA010FE140E0099F20
:101E4000102D212D089F002D110D241F48E0049F07
:101E5000012D149F112D0029249F1029A801012B69
:101E600011F441E050E059BD48BD0CEC1AE00150BE
:101E70001040E9F700C0A8957723E9F60EB50D7F6D
:101E80000EBD0FB50F7D0FBD949854EB00E41FE11C
:101E90001BBD0ABD48E00091FB02401B0AB51BB503
:101EA0000E94722B19BD08BD2EB521FD06C02FB5AD
:101EB00020622FBD2EB522602EBD5A95C8010FE1BC
:101EC00040E0099F102D212D089F002D110D241F8A
:101ED00048E0049F012D149F112D0029249F1029F3
:101EE000202F212B11F401E010E019BD08BD2CECCE
:101EF0003AE021503040E9F700C0A8955523E9F6B3
:101F00000EB50D7F0EBD0FB50F7D0FBD94985CE330
:101F100000E41FE11BBD0ABD0091FB02401B0AB596
:101F20001BB50E94722B19BD08BD2EB521FD06C040
:101F30002FB520622FBD2EB522602EBD5A95C80147
:101F40000FE140E0099F102D212D089F002D110D5C
:101F5000241F48E0049F012D149F112D0029249F68
:101F60001029202F212B11F401E010E019BD08BD2C
:101F70002CEC3AE021503040E9F700C0A8955523F9
:101F8000E9F60EB50D7F0EBD0FB50F7D0FBD949810
:101F900054EB00E41FE11BBD0ABD0091FB02401B96
:101FA0000AB51BB50E94722B19BD08BD2EB521FDC7
:101FB00006C02FB520622FBD2EB522602EBD5A95CA
:101FC000C8010FE140E0099F102D212D089F002D31
:101FD000110D241F48E0049F012D149F112D00298D
:101FE000249F1029202F212B11F401E010E019BDAE
:101FF00008BD2CEC3AE021503040E9F700C0A8952C
:102000005523E9F60EB50D7F0EBD0FB50F7D0FBD43
:10201000949854EB08E51BE11BBD0ABD0091FB023F
:10202000401B0AB51BB50E94722B19BD08BD2EB509
:1020300021FD06C02FB520622FBD2EB522602EBD1A
:102040005A95C8010FE140E0099F102D212D089FEE
:10205000002D110D241F48E0049F012D149F112D08
:102060000029249F1029202F212B11F401E010E0DA
:1020700019BD08BD2CEC3AE021503040E9F700C012
:10208000A8955523E9F60EB50D7F0EBD0FB50F7D52
:102090000FBD94985CE308E51BE11BBD0ABD0091F0
:1020A000FB02401B0AB51BB50E94722B19BD08BD6F
:1020B0002EB521FD06C02FB520622FBD2EB52260A2
:1020C0002EBD5A95C8010FE140E0099F102D212D2A
:1020D000089F002D110D241F48E0049F012D149F1F
:1020E000112D0029249F1029202F212B11F401E00C
:1020F00010E019BD08BD2CEC3AE021503040E9F762
:1021000000C0A8955523E9F60EB50D7F0EBD0FB59D
:102110000F7D0FBD949854EB08E51BE11BBD0ABD74
:102120000091FB02401B0AB51BB50E94722B19BD22
:1021300008BD2EB521FD06C02FB520622FBD2EB5DE
:1021400022602EBD5A95C8010FE140E0099F102D75
:10215000212D089F002D110D241F48E0049F012D03
:10216000149F112D0029249F1029202F212B11F4B9
:1021700001E010E019BD08BD2CEC3AE021503040E0
:10218000E9F700C0A8955523E9F60EB50D7F0EBD01
:102190000FB50F7D0FBD94985CE300E41FE11BBDFC
:1021A0000ABD0091FB02401B0AB51BB50E94722BB1
:1021B00019BD08BD2EB521FD06C02FB520622FBD6B
:1021C0002EB522602EBD5A95C8010FE140E0099F4F
:1021D000102D212D089F002D110D241F48E0049F74
:1021E000012D149F112D0029249F1029202F212B10
:1021F00011F401E010E019BD08BD2CEC3AE02150CB
:102200003040E9F700C0A8955523E9F60EB50D7FDB
:102210000EBD0FB50F7D0FBD949854EB00E41FE188
:102220001BBD0ABD0091FB02401B0AB51BB50E94F5
:10223000722B19BD08BD2EB521FD06C02FB5206239
:102240002FBD2EB522602EBD5A95C8010FE140E08A
:10225000099F102D212D089F002D110D241F48E0EE
:10226000049F012D149F112D0029249F1029202F38
:10227000212B11F401E010E019BD08BD2CEC3AE06F
:1022800021503040E9F700C0A8955523E9F60EB576
:102290000D7F0EBD0FB50F7D0FBD94985CE300E47C
:1022A0001FE11BBD0ABD0091FB02401B0AB51BB517
:1022B0000E94722B19BD08BD2EB521FD06C02FB599
:1022C00020622FBD2EB522602EBD5A95C8010FE1A8
:1022D00040E0099F102D212D089F002D110D241F76
:1022E00048E0049F012D149F112D0029249F1029DF
:1022F000202F212B11F401E010E019BD08BD2CECBA
:102300003AE021503040E9F700C0A8955523E9F69E
:102310000EB50D7F0EBD0FB50F7D0FBD94985FEF0D
:1023200000E41FE11BBD0ABD0091FB02401B0AB582
:102330001BB50E94722B19BD08BD2EB521FD06C02C
:102340002FB520622FBD2EB522602EBD5A95C80133
:102350000FE140E0099F102D212D089F002D110D48
:10236000241F48E0049F012D149F112D0029249F54
:102370001029202F212B11F401E010E019BD08BD18
:102380002CEC3AE021503040E9F700C0A8955523E5
:10239000E9F60EB50D7F0EBD0FB50F7D0FBD9498FC
:1023A000662309F02ECD0DC005E047EF5FEB66E038
:1023B000415050406040E1F700C00000A8950A95E8
:1023C000A1F789919991089500E00BBB0ABB08BB66
:1023D0000FEB07BB03E005BB0CEF04BB0DE602BB34
:1023E00003E901BB01E50DB901E00EB906E806B944
:1023F00003EC07B90AE003BF09E20CBF01E20FBD1D
:1024000002E10EBD00E010E009BD08BD03E605BD18
:1024100013BD15BF1BBF02E009BF0895BA93AA936D
:102420009A938A9321978E010E94D22308810023D8
:1024300009F4E1C085EC92E0FC0105AD016005AF57
:102440000EB50D7F0EBD0FB50F7D0FBD94980881A1
:102450000A9579F00A9539F10A9509F449C00A9567
:1024600009F473C00A9509F475C00A9509F494C07B
:10247000B2C005AD01FF0CC0E091C604F091C704E5
:10248000059114910E94CD26FC0105AD04601AC08F
:1024900001AD03BDA4A5B5A5129744F104A515A5EA
:1024A000015010401BC005AD01FF0EC0E091C604F5
:1024B000F091C7043296059114910E94CD26FC013B
:1024C00005AD0B7F05AF87C001AD03BDA4A5B5A5C4
:1024D0005E9764F404A515A50F5F1F4F04A715A709
:1024E000F89444E050E00E94132B7894C5D673C052
:1024F00005AD01FD73C001AD03BD16AD13FB10E0CA
:1025000010F901E0102710FB06AD03F906AF00E853
:102510000E94D00309EC10E00E94BD2E00EC0E9446
:10252000D003FC0106AD03FF03C008EB10E002C0BE
:1025300007EA10E00E94BD2EF8940091030342E1E7
:1025400050E00E940F2B789446C005AD01FD46C0B7
:1025500057D241C005AD01FF1CC0E091C604F09107
:10256000C70406E616E03696259134913797021790
:10257000130749F0DC01DD960C910B7F0C93369626
:102580000591149126C03896059114910E94D62683
:1025900022C00E94751F1FC005AD01FF11C0E09150
:1025A000C604F091C70434960591149126E636E0EE
:1025B0002017310771F4FC0105AD0D7F05AF0EC08A
:1025C0000B7F05AF036005AF0091FE0203BD09EA72
:1025D00012E00E94CD260881002369F00E94F723B3
:1025E000FC0105AD01FD07C00E7F05AF06AD03FD83
:1025F00002C000E003BDBCC6AC01002311F109EC30
:1026000007B920E030E000E1369A0A953699FECF0E
:1026100084B195B191FB0EF49450280F391F00231B
:1026200099F73595279535952795359527953595BE
:1026300027950091820410918304201B310BC9015E
:1026400010C003EC07B9000002E0369A0A953699EB
:10265000FECF84B195B19695879596958795002381
:10266000A1F78C01CA010895AA929A928A927A924D
:102670006A925A924A92BA93AA939A938A93ACB660
:102680000E94F723B8C000E000930403B4C00CB765
:10269000063208F4B0C00CB70A9517C107E1802EC6
:1026A000992404E3402E55240CE3602E77244CBE7D
:1026B00007EF1FEB26E0015010402040E1F700C07B
:1026C0000000A89501E098DFD8016AD16CBE07EF41
:1026D0001FEB26E0015010402040E1F700C0000051
:1026E000A89501E089DFC8015BD18401990C9908A4
:1026F000292D392D0E94392CA801B9010AE717E3C9
:102700002EE13FE30E94F92C40E050E060E07FE3DF
:102710000E94982C0E94462C48018A179B070CF4B3
:10272000D6C082012301DC013801680C791C6CBE23
:1027300007EF1FEB26E0015010402040E1F700C0FA
:102740000000A89509EC07B900E010E020E1369AF6
:102750002A953699FECF84B195B191FB0EF4945031
:10276000080F191F222399F7C8019595879595950C
:1027700087959595879595958795009182041091F9
:102780008304801B910B00E80E94D0034CB750E0FB
:102790004F5F5F4F00E2509F502D409F402D5129C9
:1027A000652F660F660B762F00E010EC28EA30E00C
:1027B0000E94D72B1A930A9304E814E00E94BD2EBE
:1027C000229600EC0E94D0038C01159507951A9370
:1027D0000A9304E914E00E94BD2E229602E08016BE
:1027E00000E090060CF081CF460C571C559447949E
:1027F0004CBE0E94CF240E94630500E80E94D003D3
:102800008CB790E0019600E2909F902D809F9129D7
:10281000402D592F990F990B692F792F00E010EC5B
:1028200028EA30E00E94D72B1A930A9303E614E0BB
:102830000E94BD2E229600EC0E94D00301E0DCDE57
:10284000159507951A930A9303E714E00E94BD2E8D
:10285000229603E616E022E0015010402040E1F706
:1028600000C0000012D3802F002309F40CCF0EEF1C
:1028700017ED01501040E9F700C000000E94630509
:1028800004D3801709F0FFCE0E94CF2400910403E7
:102890000F3F19F00395009304038A9509F4FECEC7
:1028A0008A9509F4FBCE8A9551F08A9509F4EFCE0A
:1028B0008A9509F460C08A9509F465C09CCF0CB76D
:1028C0000B3408F098CF0CB703950CBF94CF83015D
:1028D0003201CD012801481859084CBE07EF1FEB03
:1028E00026E0015010402040E1F700C00000A8950C
:1028F00009EC07B9A0E0B0E000E1369A0A953699F4
:10290000FECFE4B1F5B1F1FB0EF4F450AE0FBF1FF2
:10291000002399F7B595A795B595A795B595A79572
:10292000B595A7950091820410918304A01BB10B6B
:1029300000E80E94D0034CB750E04F5F5F4F00E2C9
:10294000509F502D409F402D5129652F660F660BDB
:10295000762F00E010EC28EA30E00E94D72B1A9383
:102960000A9304E814E00E94BD2E229600EC0E9417
:10297000D0038D012ACFF8940CB74FE050E00E94AD
:102980000F2B789401C0ACBE89919991A991B9910E
:10299000499059906990799089909990A99008955B
:1029A0009A938A93C80100E80E94D003ECB7F0E044
:1029B000319600E2F09FF02DE09FF129402D5F2F2E
:1029C000FF0FFF0B6F2F7F2F00E010EC28EA30E0A5
:1029D0000E94D72B1A930A9304E814E00E94BD2E9C
:1029E000229600EC0E94D003959587959A938A933E
:1029F00004E914E00E94BD2E2296899199910895D0
:102A00005A924A92BA93AA939A938A9300E80E94A0
:102A1000D00305EC14E00E94BD2E0E94F7230E9413
:102A2000292433D2802F002331F10EEF17ED01500E
:102A30001040E9F700C000000E94630526D280170D
:102A4000D1F40E94CF24A4E0B3E00C910F3F19F021
:102A500003950C9399F00EB50D7F0EBD0FB50F7D4C
:102A60000FBD94980E94292489919991A991B991B7
:102A700049905990089500E0009304030E94630573
:102A8000E5ECF2E0828D938D04A515A5000F111FD2
:102A9000000F111F000F111F801B910B12F480E01B
:102AA00090E0A6A9AA2331F005A9182F192BE1F46B
:102AB0000430E1F000E009BD08BD0EB50D7F0EBD8C
:102AC0000FB50F7D0FBD949800EC0E94D003A5EACE
:102AD000B4E000E1402EFD0105911491081719079B
:102AE0000CF043C005E042C0043011F48FEF9FE7C3
:102AF00000E717E12801AC01692F660F660B08E1BA
:102B000015E12224169F302D069F300D159F202D94
:102B1000310D069F200D311D149F102D210D321DEA
:102B2000059F100D211D321D049F002D110D221D2A
:102B3000321D4FEF5FE760E070E00E94D72B401A34
:102B4000510A5BBC4ABC48E04A1B0AB51BB50E944F
:102B5000722B19BD08BD0EB501FDB6CF0FB50062D1
:102B60000FBD0EB502600EBDAFCF00E20E94DD03C7
:102B700012964A9409F455CFAECF9A938A93C8011E
:102B80000E94DD030E9463058C018991999108954B
:102B90007A926A925A924A92BA93AA939A938A9391
:102BA000D801190100E010E020E030E081E002C02F
:102BB000843018F4482F50E004C047E050E0481B30
:102BC0005040FD016689762F770F770B660F771FD0
:102BD000E60FF71F60817181440F551FFD01E40F5F
:102BE000F51F46855785E0E075023001649F20019E
:102BF00074037E0A500C611C7E1E56037E0A500C24
:102C0000611C7E1E040D151D261D371D873040F4E6
:102C1000FD0146894395468B473014F040E0468BD2
:102C20008395883028F2FD014689542F550F550BA6
:102C3000440F551FE40FF51F20823182A101FD01D1
:102C40006685778522245702D001469FC00156032E
:102C5000B040900DA11DB21D7403B040900DA11D98
:102C6000B21D080F191F2A1F3B1F4FE05091FF0292
:102C7000451B0E94B12B003040E8140722053205A5
:102C80001CF00FEF1FE707C0003014072F4F3F4F16
:102C900014F400E010E889C27A926A925A924A9239
:102CA000BA93AA939A938A93F801A901330F330B2D
:102CB000632F00851185212F220F220B322F222412
:102CC000349F302D259F300D169F300D069F300DFF
:102CD000249F202D310D159F200D311D069F200DA5
:102CE000311D149F102D210D321D059F100D211D2A
:102CF000321D049F002D110D221D321D00801180F8
:102D000022803380000D111D221D331D005C1F4FDA
:102D10002F4F3F4F000F111F012F221F122F232F64
:102D2000221F330B82859385A92FAA0FAA0BBA2FD6
:102D30002224B49FB02DA59FB00D969FB00D869F05
:102D4000B00DA49FA02DB10D959FA00DB11D869F24
:102D5000A00DB11D949F902DA10DB21D859F900DCA
:102D6000A11DB21D849F802D910DA21DB21D468410
:102D70005784652C660C6608762C709E702C619EBC
:102D8000700C529E700C439E700C609E602C710CF7
:102D9000519E600C711C429E600C711C509E502C08
:102DA000610C721C419E500C611C721C409E510CA7
:102DB000621C721C80199509A609B7090480158048
:102DC00026803780800D911DA21DB31D80839183C5
:102DD000A283B38384859585A92FAA0FAA0BBA2F46
:102DE0002224B49FB02DA59FB00D969FB00D869F55
:102DF000B00DA49FA02DB10D959FA00DB11D869F74
:102E0000A00DB11D949F902DA10DB21D859F900D19
:102E1000A11DB21D849F910DA21DB21D402D592FE1
:102E2000BD0180899189A92FAA0FAA0BBA2FB09F43
:102E3000B02DA19FB00D929FB00D839FB00DA09FAC
:102E4000A02DB10D919FA00DB11D829FA00DB11DB0
:102E5000909F902DA10DB21D819F900DA11DB21DBF
:102E6000809F910DA21DB21D4019590B6A0B7B0B5F
:102E70004483558366837783005C1F4F2F4F000F79
:102E8000111F012F221F122F90C100E0A19A0000F4
:102E9000A9982FEA32E021503040E9F700009899D4
:102EA00002C006E002C0869B01E0A198000000007D
:102EB000A99A000000000000A09A00000000A89855
:102EC0002FEA32E021503040E9F70000999902C022
:102ED00005E002C0869B02E0A09800000000A89ACE
:102EE0000000000000008E9A0000000096982FEA73
:102EF00032E021503040E9F70000999902C004E027
:102F000002C0989B03E08E980000969A08957A92EA
:102F10006A925A924A92BA93AA939A938A93619721
:102F200000E80E94D003442488E592E03C010CE2D2
:102F3000600E741CA5ECB2E0F3012081FD0106A532
:102F400017A5442D0E94722B017021F0222311F449
:102F500004E00AC0273038F410E02F5F1F4F1595AA
:102F60002795022F01C00FEF0E94DD030E94630529
:102F7000439401E0600E00E0701E00E14016E0F2B4
:102F800000910003002309F497C0009196020023EA
:102F900049F00A9519F10A9509F44EC00A9509F409
:102FA00067C0AEC0FD0106AD03FF02C00AE201C06A
:102FB00000E210E01A930A932DE035E08E010E5FD7
:102FC0001F4F0E94A22F2296FC0105AD0A9505AF66
:102FD00009F096C00FEF05AF01E06CC0FD0106AD32
:102FE00003FF02C00AE201C000E2402E5524009116
:102FF000010310E020E030E00E94442C40E050E06B
:1030000060E271E40E94722D3A932A931A930A9314
:103010005A924A9228EE34E08E010A5F1F4F0E94B6
:10302000A22F2696FC0105AD0A9505AF09F068C0F0
:103030000FE005AF02E03EC0FD0106AD03FF02C098
:103040000AE201C000E210E01A930A932DE035E095
:103050008E010E5F1F4F0E94A22F2296FC0105AD2C
:103060000A9505AF09F04CC00FEF05AF03E022C091
:10307000FD0106AD03FF02C00AE201C000E210E05C
:1030800040895189628973897A936A935A934A93E2
:103090001A930A932BEF34E08E010A5F1F4F0E94B0
:1030A000A22F2696FC0105AD0A9505AF49F50FE064
:1030B00005AF00E006AF24C0FD0106AD03FF02C06E
:1030C0000AE201C000E2402E55240091010310E005
:1030D00020E030E00E94442C40E050E060E271E4E7
:1030E0000E94722D3A932A931A930A935A924A9203
:1030F00028EE34E08E010A5F1F4F0E94A22F269611
:10310000FC0102A113A1FD0142A553A5242F252BEB
:1031100041F4043020E0120714F426E009C020E254
:1031200007C0043020E0120714F427E001C025E0B6
:103130002883DE011196E8EDF4E028E032976591EE
:103140007591061717076CF00590149031970015CC
:1031500011053CF44617570710F436E008C037E075
:1031600006C04617570710F430E201C035E03C9323
:10317000329611962A9511F74031574238F40031B2
:10318000174214F400E203C006E001C007E009871B
:1031900000EC0E94D003DE0180E10D910E94DD036E
:1031A0000E9463058A95C9F7619689919991A991C1
:1031B000B991499059906990799008959A938A931A
:1031C0008091FB0200E80E94D0030AED10E00E940B
:1031D000BD2E0E94F72303C0882309F08A9500ECD6
:1031E0000E94D003882349F090E09A938A9305E9DE
:1031F00010E00E94BD2E229604C007EA10E00E9453
:10320000BD2E43DE902F002331F10EEF17ED01505C
:103210001040E9F700C000000E94630536DE9017F9
:10322000D1F40E94CF24009104030F3F19F00395BD
:10323000009304039A9581F29A9549F09A9561F268
:103240009A9529F09A9559F09A9599F0C8CF8730B8
:1032500030F68395C4CF00E000930403C0CF809381
:10326000FB02F8940091FB024AE050E00E940F2B11
:10327000789489919991089500E80E94D0030FE114
:1032800015E00E94BD2E00EC0E94D0030091F102D7
:103290001091F2021A930A9300E315E00E94BD2EEA
:1032A00022960895BA93AA939A938A93A5ECB2E0D2
:1032B0008091FC0200E80E94D0030BEE10E00E9417
:1032C000BD2E0E94F72307C00091FC02063018F4BF
:1032D000FD01039507AB00EC0E94D00307E010E06E
:1032E0002091FC02021B10401A930A9305E910E09A
:1032F0000E94BD2E2296C9DD902F002349F10EEFCA
:1033000017ED01501040E9F700C000000E9463056E
:10331000BCDD9017E9F40E94CF24009104030F3F15
:1033200019F0FD01039507AF9A9571F29A9549F04E
:103330009A9551F29A9529F09A9571F09A95A9F07B
:10334000CACF0091FC02002331F2FD010A95C2CFE1
:1033500000E000930403BFCFF8940091FC024BE01F
:1033600050E00E940F2B789402C08093FC0201C0B1
:10337000219689919991A991B99108954A92BA9308
:10338000AA938A93A5ECB2E08091FE0200E80E9425
:10339000D0030CEF10E00E94BD2E0E94F7230AC05C
:1033A0000091FE020D3718F4FD010C5F01AF009192
:1033B000FE0203BD00EC0E94D0030091FE020695C0
:1033C000069510E01A930A9305E910E00E94BD2EBD
:1033D00022965BDD402E002349F10EEF17ED0150E0
:1033E0001040E9F700C000000E9463054EDD401662
:1033F000E9F40E94CF24009104030F3F19F0FD016E
:10340000039507AF4A9459F04A9451F24A9439F01F
:103410004A9431F24A9491F04A94C9F0CBCF00918A
:10342000FE02043038F0FD010450C0CF00E00093EC
:103430000403C0CF00E00093FE02B9CFF8940091DE
:10344000FE024DE050E00E940F2B789403C0809361
:10345000FE0283BD8991DDC39A938A938091030311
:10346000837000E80E94D0030DE011E00E94BD2EA1
:103470000E94F72303C0882309F08A9500EC0E947C
:10348000D003E82FF0E03196FA93EA9305E910E0D3
:103490000E94BD2E2296F9DC902F002331F10EEF11
:1034A00017ED01501040E9F700C000000E946305CD
:1034B000ECDC9017D1F40E94CF24009104030F3F5D
:1034C00019F00395009304039A95A9F29A9549F08F
:1034D0009A9589F29A9529F09A9559F09A95B1F0B2
:1034E000CDCF823058F68395C9CF00E00093040316
:1034F000C5CF009103030C7F8370082B0093030357
:10350000F89442E150E00E940F2B789489919991B0
:1035100008959A938A938091FD0200E80E94D00357
:103520000EE111E00E94BD2E0E94F72303C0882304
:1035300009F08A9500EC0E94D003882309F453C057
:1035400090E09A938A9305E910E00E94BD2E22969E
:103550000AB51BB5003026E3164311F02BBD9ABD0A
:103560004DE0481B00E016E30E94772B28B539B5E3
:103570002017310711F019BD08BD0EB501FD06C0B9
:103580000FB500620FBD0EB502600EBD7EDC902F40
:103590000023A9F10EEF17ED01501040E9F700C02C
:1035A00000000E94630571DC901749F50E94CF244A
:1035B000009104030F3F19F00395009304039A95BB
:1035C00009F4B5CF9A9551F09A9509F4B0CF9A9530
:1035D00029F09A95C1F09A9501F1ACCF873008F0A7
:1035E000A9CF8395A7CF07EA10E00E94BD2E0EB5A4
:1035F0000D7F0EBD0FB50F7D0FBD9498C7CF00E0B6
:103600000093040397CFF8948093FD020091FD028C
:103610004CE050E00E940F2B789489919991089585
:10362000BA93AA939A938A93A5ECB2E0809103038C
:1036300082FB80E080F900E80E94D00302E415E0FC
:103640000E94BD2E0E94F72303C0817001E08027F5
:1036500000EC0E94D003882319F003E515E002C0B6
:1036600004E615E00E94BD2E10DC902F002351F1DE
:103670000EEF17ED01501040E9F700C000000E9466
:10368000630503DC9017F1F40E94CF24009104033A
:103690000F3F19F0FD01039507AF9A959450A8F2DA
:1036A00019F09A9559F1D4CF882381F005E013E001
:1036B000FD01048B158B07E113E0068B178B09E2E4
:1036C00013E00FC000E000930403C2CF0BE313E04C
:1036D000FD01048B158B0DE413E0068B178B0FE5B2
:1036E00013E0008F118FDE9680FB0C9102F90C9392
:1036F000F89442E150E00E940F2B78943ACE7A92EF
:103700006A925A924A929A938A936090FF02E8E5ED
:10371000F2E0848195814680578000E80E94D003C2
:103720000FE211E00E94BD2E0E94F72307C0662021
:1037300029F06A94959587955594479400EC0E94DA
:10374000D003E62DF0E03196FA93EA9305E910E014
:103750000E94BD2E229699DB702E002359F10EEFA8
:1037600017ED01501040E9F700C000000E9463050A
:103770008CDB7016F9F40E94CF24009104030F3FF4
:1037800019F00395009304037A9489F27A9449F02E
:103790007A9469F27A9429F07A9481F07A94F1F02B
:1037A000CDCF02E0601650F66394880F991F440C49
:1037B000551CC4CF00E000930403C0CFF89460927E
:1037C000FF020091FF024EE050E00E940F2B789420
:1037D000E8E5F2E084839583468257828991999146
:1037E000E8CCDA92CA92AA927A926A925A924A9251
:1037F000BA93AA939A938A93FAD7B6C000E20E942A
:10380000DD030E9463050EEFC00E0FEFD01EAA204D
:1038100009F06BC107E00E94DD0300E20E94DD03B6
:103820007A926A9205E715E00E94BD2E22962BC07F
:103830007A926A9205E715E00E94BD2E229606E074
:103840000E94DD03082F092B11F005E001C000E202
:103850000E94DD0303E7602E03E0702E07E0A02E38
:10386000F301008111810817190714F405E001C064
:1038700000E20E94DD030E94630502E0600E00E0AA
:10388000701EAA9469F700EC0E94D003552032F50F
:103890008FE793E007E0602E6A94FC0100811181BC
:1038A0001195019510404016510614F405E001C031
:1038B00000E20E94DD030E9463050297662061F723
:1038C00007E00E94DD0300E20E94DD03BA93AA93A1
:1038D0000CE715E00E94BD2E229625C0BA93AA934C
:1038E0000CE715E00E94BD2E229606E00E94DD0343
:1038F000042D052911F005E001C000E20E94DD035E
:1039000083E793E0A7E0FC01008111810415150510
:1039100014F405E001C000E20E94DD030E9463058B
:103920000296AA9581F7B1DA802F002309F4EAC044
:103930000EEF17ED01501040E9F700C000000E94A3
:103940006305A3DA801709F0DDC00E94CF2410912F
:1039500004031F3F19F0139510930403853009F4F5
:10396000D5C0863009F4D2C02090FF022394422DA6
:10397000E8E5F2E0008111810E94772BA801110F88
:10398000110B612F08E813E13324169F302D069F99
:10399000300D159F202D310D069F200D311D149FD8
:1039A000102D210D331D059F100D211D331D049F6A
:1039B000110D231D331DB32FA32FBB0FBB0BA595DB
:1039C000A595A595A595A595CD01A0E0B0E0969506
:1039D000879596958795800D911FA21FB31FB5956A
:1039E000A7959795B595A7959795B595A79597950B
:1039F000B595A7959795B595A7959795892FB59561
:103A0000A7959A2F879502811381422D0E94772BCB
:103A1000A801110F110B612F08E813E1169F302D3B
:103A2000069F300D159F202D310D069F200D311D55
:103A3000149F102D210D331D059F100D211D331DC9
:103A4000049F110D231D331D732E632E770C7708F1
:103A50006594659465946594659423016624772440
:103A60005694479456944794400C511E621E731E00
:103A70007594679457947594679457947594679464
:103A80005794759467945794759467945794452CFC
:103A900075946794562C4794242D362D082F1A2F91
:103AA00036D738019201082F1A2F0E947903D801C6
:103AB0005096B595A795B595A795B595A795B59544
:103AC000A795B595A795A53B00E0B00714F0A856BB
:103AD000B14000E80E94D00399230AF0A9CE0FE775
:103AE000C02E03E0D02E07E0A02EAA94F60100819C
:103AF0001181119501951040801791070CF07ECE31
:103B000005E07DCE00E0009304032ECF89919991CA
:103B1000A991B9914990599069907990A990C990CB
:103B2000D99008954A92BA93AA939A938A93D80106
:103B3000822F00E80E94D003882389F183E895E072
:103B400000E1402EFC01259134912E3100E0300738
:103B500044F4FC013296059114910E31104064F446
:103B600004C0283E03E0300774F4FC01329605914E
:103B70001491083E13403CF02A173B0714F407E069
:103B800008C006E006C02A173B0714F405E001C090
:103B900000E20E94DD0302964A94C9F1D3CF81EB83
:103BA00095E007E0402E4A94FC010591149111958F
:103BB00001951040A017B10714F405E001C000E220
:103BC0000E94DD030297442071F7BB2312F407E043
:103BD00001C006E00E94DD03A13000E0B00714F050
:103BE00005E001C000E20E94DD0385EA95E007E000
:103BF000402EFC01059114910A171B0714F405E0EF
:103C000001C000E20E94DD0302964A9491F7899177
:103C10009991A991B99149900895BA92AA929A92CC
:103C20008A927A926A925A924A92BA93AA939A93F1
:103C30008A93A8E5B2E0FD01A4A0B5A0350109D69C
:103C4000D6D585EC92E01AC00F5F1F4F04A315A3D1
:103C500004A115A1053B104024F00DE41FEF04A3BF
:103C600015A365EE43EE52E004A115A1212F220F0A
:103C7000220B322F0E94392C72E05ED520E0FD012C
:103C8000028513854FDF00EC0E94D003FD0104A1E3
:103C900015A11A930A9303EB15E00E94BD2E2296FC
:103CA000F4D8402E0023B1F00EEF17ED0150104074
:103CB000E9F700C000000E946305E7D8401651F400
:103CC0006ED6142D009104030F3F39F0FC010395CB
:103CD00007AF03C010E010930403009104031A958A
:103CE00049F11A9539F11A9549F01A95D9F01A95B2
:103CF00009F4A7C01A9509F4AEC0C0CF0B30FD017E
:103D000004A115A110F00A5001C00150104004A3F5
:103D100015A304A115A10D341F4F0CF0A2CF04EB85
:103D200010E09DCF0B30FD0104A115A108F48CCF4C
:103D3000065F8BCF8824992400E61AEEFC0102ABC3
:103D400013AB87D548C00E946305FC0122813381F3
:103D500000811181DCD52801103820F00FEF402EB2
:103D60000FE7502E21E08201DDDE08EE401603E071
:103D7000500680F58414950468F5FC012281338196
:103D8000319521953040008111810E9479033801DD
:103D900000E1600E00E0701E75946794759467945E
:103DA00075946794759467947594679405EB6016A1
:103DB00000E0700624F008E9600E0EEF701E00ECC3
:103DC0000E94D0037A926A9204EC15E00E94BD2E04
:103DD00022964201A895FC0102A913A9012B09F022
:103DE000B2CFDDD50EE1801600E0900630F500E898
:103DF0000E94D00305ED15E00E94BD2E00EC0E944C
:103E0000D00306EE15E00E94BD2E07E919E521E07A
:103E1000015010402040E1F700C00000C0D500E292
:103E20001EE4FC0102AB13ABFC0102A913A9012B98
:103E300009F424CF0E946305F7CFFD0164A275A2A7
:103E400010CFF894FD0104A115A146E050E00E94B6
:103E5000132B78940FC0FD01A4A2B5A265EE4E9677
:103E6000AC018501BB0CBB082B2D3B2D0E94392CCE
:103E700072E062D40C94730C4A92BA93AA939A9308
:103E80008A93D80100E80E94D0038EEF95E007E006
:103E9000402EFC01049110E001951040A017B107DD
:103EA00014F405E001C000E20E94DD0374D701971D
:103EB0004A9479F7BB2312F407E001C006E00E94A0
:103EC000DD0387EF95E008E0402EFC01049110E04F
:103ED0000A171B0714F405E001C000E20E94DD038D
:103EE0005AD701964A9489F792CEEA92DA92CA9208
:103EF000BA92AA929A928A927A926A925A924A9222
:103F0000BA93AA939A938A93249705EC402E02E0E1
:103F1000502EE5ECF2E084849584A684B784E3AC6B
:103F200000E003AF0091FE0203BD61D492D41CC037
:103F300060E271EC0E94982CF201048715872687B5
:103F4000378704851585268537854FEF5FEF63E357
:103F500073EC0E94FB2D40F400E024E333E4F20113
:103F6000048705872687378716D7F201028D138DC0
:103F700083DF00EC0E94D003F201048515852685BD
:103F800037853A932A931A930A930FEF15E00E940C
:103F9000BD2E2496F201028D138D11231AF028E014
:103FA00037E002C028E532E04AB55BB52417350793
:103FB00011F03BBD2ABD0E94C82AA801003810405C
:103FC0000AB51BB5CCF416950795652F660F660BE1
:103FD0002224609F602D519F600D509F502D610DD8
:103FE000419F500D611D409F510D621D000C551FDA
:103FF000661F052F162F02C01695079547E02091E2
:10400000FB02421B0E94772B19BD08BD08B519B5EC
:10401000012B0EB549F001FD0DC00FB500620FBDBB
:104020000EB502600EBD06C00D7F0EBD0FB50F7D33
:104030000FBD9498AED6802F0023A9F00EEF17ED98
:1040400001501040E9F700C00000A5D6A2D68017A5
:1040500051F4A5D4182F009104030F3F39F0F20159
:10406000039507AF03C010E01093040340910403CD
:104070001A9509F450C01A9509F44DC01A9549F0E3
:104080001A95D9F01A9509F433C11A9509F42AC181
:104090006BCFF20104851585268537854A3028F4D3
:1040A0004DEC5CEC6CEC7DEB45CF443140E050E0F6
:1040B00008F03ECF60E87FEB3DCFF2010485158527
:1040C000268537854A3028F44DEC5CEC6CEC7DE3BA
:1040D00009C0443140E050E018F460E87FE302C0DA
:1040E00060E271E40E94982CF2010487158726870C
:1040F0003787048515852685378541E050E064E3E0
:1041000072E40E94132E08F02FCFF20154875587D6
:104110006687778729CFCC24DD240FEFF20102AB2D
:1041200003AB84859585A685B78593D362C033D6C6
:10413000F2012281338100811181E9D338019CDEB3
:1041400008EB60160BE0700608F053C0C614D704E5
:1041500008F04FC0E8E5F2E022853385008511853F
:104160000E947903212F220F220B322F0E94392C1B
:104170004DEC5CEC6CE470E40E94722D0E94D02A3D
:1041800040E050E060E271E40E94722DC801D90164
:1041900041E050E064E373E40E94132E30F440E009
:1041A00073EC0E94982CC801D90140E050E060E017
:1041B00070E08C019D010E94132ED8F441E064E36D
:1041C00072E40E94FB2DA8F488839983AA83BB83A1
:1041D00000EC0E94D003088119812A813B813A9327
:1041E0002A931A930A9300E116E00E94BD2E2496AA
:1041F0006301F20102A913A9012B09F098CFCFD3D3
:1042000006E0C01600E0D00688F040E050E060E034
:1042100070E0088119812A813B810E94FB2D30F0DA
:1042200041E064E372E40E94132E78F500E80E94F6
:10423000D00301E216E00E94BD2E00EC0E94D003E4
:10424000F20104851585268537853A932A931A93BA
:104250000A9302E316E00E94BD2E249607E919E5B1
:1042600021E0015010402040E1F700C0000097D34A
:1042700000E21EE4F20102AB13ABF20102A913A9A2
:10428000012B09F471CE87D5F8CFF2018487958789
:10429000A687B78700EC0E94D003F201048515853C
:1042A000268537853A932A931A930A930FEF15E0E0
:1042B0000E94BD2E249669EE72E047EE52E0F201B4
:1042C0000485158526853785305836D200E117E2FA
:1042D000F20102AB13ABF20102A913A9012B79F091
:1042E0005AD5F9CFE5ECF2E084869586A686B786A6
:1042F0000EB50D7F0EBD0FB50F7D0FBD9498F894D0
:10430000E5ECF2E00485158526853785008B118B59
:10431000228B338B40E050E00E941A2B789406AD3C
:1043200003FD02C000E003BDE3AE2496899199919C
:10433000A991B991499059906990799089909990F3
:10434000A990B990C990D990E9900895BA93AA9389
:104350009A938A93219780E0A091F302B091F4029E
:1043600046D20DC0482F01E010E00E946D2BE5EC15
:10437000F2E026A537A52027312726A737A700E892
:104380000E94D00390E00091F3021091F402492FB3
:104390000E94722B017011F004E001C000E00E9445
:1043A000DD039395903178F3F6D400EC0E94D003AE
:1043B00090E0891711F40EE501C000E20E94DD03D0
:1043C00093959031B0F3E7D48E01ECD108810A9532
:1043D00049F20A9539F20A9539F00A9549F00A9599
:1043E00081F00A9549F0CBCF882349F28A95C7CF4F
:1043F0008F3028F68395C3CFA093F302B093F402D5
:104400000AC0F8940091F3021091F40248E050E0E1
:104410000E94132B78940C94B8198A932197809159
:10442000000300E80E94D00300E411E00E94BD2ECA
:104430000EEF17ED01501040E9F700C00000ABD4BB
:10444000A8D40023A9F700EC0E94D0030091000338
:10445000002349F010E01A930A9305E910E00E9446
:10446000BD2E229604C007EA10E00E94BD2E8E01E8
:1044700099D108810A9559F00A9589F00A9539F081
:104480000A9569F00A9589F00A95B1F0DCCF0091A0
:1044900000030023C1F20A9500930003D4CF0091DA
:1044A0000003033080F60395F7CF0091000340E14D
:1044B00050E00E940F2B02C0809300032196899147
:1044C00008958A9321978091830200E80E94D00387
:1044D00003E416E00E94BD2E0EEF17ED01501040D0
:1044E000E9F700C0000057D454D40023A9F700EC2A
:1044F0000E94D0030091830210E020E030E00E948F
:10450000442C40E050E060E271E40E94722D3A9346
:104510002A931A930A9304E516E00E94BD2E24966E
:104520008E0140D108810A9559F00A9589F00A95C3
:1045300039F00A9569F00A9589F00A95C1F0D7CF4C
:1045400000918302053198F20A9500938302CFCF40
:1045500000918302023858F60395F7CFF894009142
:10456000830241E150E00E940F2B789402C08093B7
:10457000830221968991089500E80E94D00300915A
:10458000020302FF0AC020E230E0E091C604F0918D
:10459000C70432960591149106C02CE330E00091D7
:1045A000C6041091C704065F1F4F3A932A930E94D6
:1045B000BD2E229600EC0E94D0030091020302FF60
:1045C00007C02CE330E00091C6041091C70408C076
:1045D00020E230E0E091C604F091C7040591149107
:1045E000065F1F4F3A932A930E94BD2E229608958C
:1045F0008A9321970091030305FF02C081E001C067
:1046000080E000E80E94D00301E511E00E94BD2E89
:104610000EEF17ED01501040E9F700C00000BBD3CA
:10462000B8D30023A9F700EC0E94D0030091030344
:1046300005FF03C008EB10E002C007EA10E00E948B
:10464000BD2E8E01AFD008810A95045020F081F074
:104650000A95B9F0E8CFE3E0F3E0108115FB10E034
:1046600010F901E0102710FB008105F90083DBCF72
:10467000F8940091030342E150E00E940F2B7894DC
:1046800006C0E3E0F3E080FB008105F9008321969A
:10469000899108958A9321970091030304FF02C032
:1046A00081E001C080E000E80E94D00302E611E052
:1046B0000E94BD2E0EEF17ED01501040E9F700C02B
:1046C000000069D366D30023A9F700EC0E94D00351
:1046D0000091030304FF03C007EA10E002C008EBE7
:1046E00010E00E94BD2E8E015DD008810A95045015
:1046F00020F081F00A95B9F0E8CFE3E0F3E0108113
:1047000014FB10E010F901E0102710FB008104F900
:104710000083DBCFF8940091030342E150E00E9454
:104720000F2B789406C0E3E0F3E080FB008104F9EE
:1047300000832196899108957A926A925A924A92B8
:10474000BA93AA939A938A932A013B014BED5FE0B7
:1047500069E470E40E94F92C40E050E064E373E403
:104760000E94722DC801D9010E94F42E40E050E051
:1047700060E875E40E94F92C0E94462CF201008347
:1047800011838C019D010E94D52A40E050E060E831
:1047900075E40E94F92C0E94462CF30100831183DA
:1047A0000C94D518BA93AA938A93D801F2D2802F89
:1047B000002399F00EEF17ED01501040E9F700C00B
:1047C0000000E9D2E6D2801741F4E9D08C93009141
:1047D00004030F3F31F0039502C000E00C930093F7
:1047E0000403009104038991A991B99108950EEFF2
:1047F00017ED01501040E9F700C00000CCD2C9D23B
:104800000023A9F70895192F482F06E806B908ECE8
:1048100007B9369A3699FECF20E030E008E0369AA4
:104820000A953699FECF84B195B191FB0EF4945060
:10483000280F391F002399F735952795359527952A
:10484000359527952093820430938304842F912FEC
:104850000895AA927A926A925A924A92BA93AA9325
:104860009A938A93442455246624772480E090E028
:10487000A0E0B0E000E1A02E8ED20FEA12E00150DD
:104880001040E9F70000E8E5F2E000811181212FF6
:10489000220F220B400E511E621E721E02811381D6
:1048A000212F220F220B800F911FA21FB21FAA944B
:1048B00019F775946794579447947594679457942F
:1048C0004794759467945794479475946794579454
:1048D000479444825582B595A79597958795B59548
:1048E000A79597958795B595A79597958795B5952C
:1048F000A795979587958683978389919991A99193
:10490000B9914990599069907990A9900895FA2F9A
:10491000392EE82F11231AF4119501951040A801A2
:1049200033231AF4319521953040C90148175907AE
:104930001CF48A01AC01C801652F660F660B06EFF7
:104940002224069F202D010C302D059F102D210DB6
:10495000321D049F110D221D321D012F122F232FF6
:10496000330F330BA92FAA0FAA0B46E64A9F602DDF
:10497000010C702D499F502D610D721D489F510DE6
:10498000621D721D452F562F672F770F770B040F6F
:10499000151F261F371F8E2F932DAF2F089520919F
:1049A000FB02222339F100E911E01BBD0ABD48E0FA
:1049B000421B0AB51BB50E94722B19BD08BD0EB56E
:1049C00001FD06C00FB500620FBD0EB502600EBD41
:1049D00007E919E521E0015010402040E1F700C04F
:1049E0000000A895D8D10EB50D7F0EBD0FB50F7D77
:1049F0000FBD94980895392E082EF901242F252BE8
:104A0000262B272BB1F041505040604070409591CB
:104A100088E0112E000F111F97FB0EF4016017FEA6
:104A200004C021E2022720E11227990F8A9531F371
:104A3000F0CF802D932D0895F8010FEF07BB00E014
:104A400008BB0AE066B30A95E9F70FEF08BB1AE066
:104A500006B31A95E9F718EF17BB17E518BB1AE06C
:104A600036B31A95E9F71FEA18BB1AE056B31A9540
:104A7000E9F710E017BB64FB3EF004FB2EF434FBB7
:104A80001EF454FB0EF011E010FB108110F910839E
:104A9000662341F40F3F31F4303521F45F3A11F4CD
:104AA00021E05FC020E0177F10831460108366232D
:104AB000A1F038E03A95432F01E010E00E946D2B01
:104AC000162F102339F010811F78032F02950077DD
:104AD000102B1083332371F744C00F3FA9F038E047
:104AE0000095602F3A95432F062F1FEF0E94772BDA
:104AF000017039F010811F78032F02950077102B79
:104B00001083332379F72DC03035B1F058E000E53C
:104B100030275A95452F01E010E00E946D2B132F8E
:104B2000102339F010811F78052F02950077102B84
:104B30001083552371F715C038E00FEA50273A95D6
:104B4000432F01E010E00E946D2B152F102339F048
:104B500010811F78032F02950077102B10833323C9
:104B600071F70FEF04BB00E005BB0AE053B30A95F1
:104B7000E9F70FEF05BB0AE043B30A95E9F705E54E
:104B800005BB0AE013B30A95E9F70AEA05BB0AE098
:104B900033B30A95E9F700E004BB052F0C7F71F4ED
:104BA000042F0C7F0C3F51F4012F0C7F043531F49E
:104BB000032F0C7F083A11F462E001C060E000812D
:104BC0000D7F062B0083222309F4E1C0552331F425
:104BD0004F3F21F4153511F43A3A59F020E00B7F9C
:104BE000008308600083552338E0C1F54095642FA9
:104BF0008FC00FEF0ABB00E00BBB02E339B30A958D
:104C0000E9F70FEF0BBB12E309B31A95E9F715E5C6
:104C10001BBB12E359B31A95E9F71AEA1BBB12E35F
:104C200069B31A95E9F710E01ABB333031F40F3F3E
:104C300021F4573511F46B3A39F120E01081137FDC
:104C40001083333019F058E003E078C00F3F09F0CB
:104C50005CC0573538E0A9F007E550273A95432F57
:104C600001E010E00E946D2B152F102339F0108108
:104C70001F78032F02950077102B1083332371F7D1
:104C800086C00BEA60272CC00FEF01BB12BB0AE005
:104C900060B30A95E9F70FEF02BB1AE000B31A956B
:104CA000E9F715E512BB1AE030B31A95E9F71AEAED
:104CB00012BB1AE050B31A95E9F710E011BB662356
:104CC00041F40F3F31F4353521F45A3A11F421E023
:104CD0005EC020E010811C6010836623A1F038E0E4
:104CE0003A95432F01E010E00E946D2B162F102300
:104CF00039F010811F78032F02950077102B108355
:104D0000332371F744C00F3FA9F038E00095602FBE
:104D10003A95432F062F1FEF0E94772B017039F031
:104D200010811F78032F02950077102B10833323F7
:104D300079F72DC03535B1F058E005E530275A95A3
:104D4000452F01E010E00E946D2B132F102339F046
:104D500010811F78052F02950077102B10835523A3
:104D600071F715C038E00AEA50273A95432F01E061
:104D700010E00E946D2B152F102339F010811F7841
:104D8000032F02950077102B1083332371F7022F26
:104D900008950C9445170C94630536E00636130706
:104DA00021F00093C6041093C7040895202F212BEF
:104DB00011F0F8010995089500008895FECF0E9432
:104DC000692ED2D37A015B016B01882499244AD1E0
:104DD00051D110F160E070E00E94F12DA1F5098938
:104DE000002309F442C08E149F044CF40CEF80168B
:104DF0000FEF900624F000E0088BE818F908ACD318
:104E00000A89002381F100E0098B2FC023D10E9481
:104E1000722DAAD30AE097D347EB53E46AEB71E50E
:104E200028D1A0F323D160E271E423D1C0F60E941F
:104E3000722D9AD301E087D3F5CF0CD193D306EF2F
:104E4000800E0FEF901E40E057EE6BED7EE207D133
:104E5000A0F308D104D118F660E271E483D30FEF18
:104E6000800E901EF6CF01E00A8B0889002319F00E
:104E70006624772442C09920DAF4DED02701E1D0FD
:104E80006624772402C0D8D067D369D386149704E8
:104E90001CF40E2D0F29B9F70FEF1FEF0419150998
:104EA000801691060CF470C077246624639425C0A4
:104EB00034017194619400E0700A1FC0DDD00E943B
:104EC000462C402E212F220F220B322F0E94392CEC
:104ED000A801B901D1D00E94DC2CA801B90100E0E1
:104EE00010E020E231E43ED3042D005DA6D0930112
:104EF00001E00CD3232B09F4A4D0E614F704F4F654
:104F0000B5D060EA70E4B5D0F8F5F7D2C6010197E4
:104F1000FC0100810E3249F0040D00830A3321F4B4
:104F200000E30083EAD201C044240197AE16BF0615
:104F300078F340FA4EF508890023B1F0C60102C0AB
:104F400000830197A816B90658F4FC0102910E32AD
:104F5000FC01B1F732970081FC0100830197F1CF8A
:104F600001E0800E941E0DC001E0C00ED41EC601EB
:104F700005C0FC010291FC0100830197A816B90647
:104F8000C0F301E3F50100830989002321F40CC07B
:104F90000FEFC00ED01EF60102910033C9F30E329E
:104FA00019F40FEFC00ED01E08890023D1F1F601CD
:104FB000019399203AF40DE241D09194819400E05C
:104FC000900A02C00BE23AD0442455240AE0C00EF5
:104FD000D41C01E0400E00E0501E51D0405DF601AF
:104FE00041936F014CD04801012B99F702E0401624
:104FF00000E0500674F33201820117D02081830152
:1050000014D0E40DF51D3B9720830FEF400E501E8A
:1050100001E0401600E050067CF706EFC00E0FEFEF
:10502000D01E8601E3E10C947A2E11950195104073
:10503000F601E00FF11F089500E3F60101936F01FF
:1050400008950E2D0F2919F40A89002311F00EE29C
:10505000F5DF089549EF52E065E170E508950CD061
:105060000C94FB2D03D060E87FE3089540E050E00E
:10507000089502D00C94132E8C019D0108954AE0EE
:1050800050E084010C94922B0E94692EEF97EF97C9
:105090006C9729873A874F83588778015B0100E036
:1050A0000D830E8304C053D20FD205E21BD200E061
:1050B0000C870D8702C008D215D2FAD1053249F00B
:1050C0000023C9F70D811E81EF96EF966C96E0E103
:1050D000AACF0491053239F300E00C830B830A83D5
:1050E00009833E0104E112D208E816E00A8B1B8B0B
:1050F00006C00981002311F40491098328D2DCD170
:105100000052B9F3035059F00850B1F3025019F0AE
:10511000035049F00CC00A8103950A83EFCF0B813D
:1051200003950B83EBCF0C8103950C83E7CF0491A0
:105130000A3271F4F5D1C080D180DD203AF4D194E7
:10514000C19400E0D00A0A8103950A8300D212C0FC
:10515000CC24DD244AE050E00BC086010E94632B82
:105160006801A7D1C00ED51E00EDC00E0FEFD01EF6
:10517000A6D198F30A81002311F000E00C839CD1A2
:105180000E32D9F4E4D198D10A3229F4C9D1408041
:105190005180DDD115C0442455244AE050E08FD120
:1051A00078F482010E94632B280183D1400E551EA2
:1051B00000ED400E0FEF501EF2CF44244A94542CC1
:1051C00080E07AD10C5421F00C5139F0045041F4B4
:1051D00081E0E80E00E0F01E03C001E0E00EF81EE2
:1051E00067D10883EEEBF6E00C94242E93D12E5F6A
:1051F0003F4F208331835EF44D815E81652F660FC2
:10520000660B51D1408351836283638350CF2D81DC
:105210003E8149D1208331834ACF82D100810C8BDA
:105220004E0105E190D101C17BD160807180062DD6
:10523000072931F40AEA16E00C871D870DE0F3C058
:10524000552022F400E1402E07E2502E80E090E04D
:1052500001C00196F30101913F01002319F084156B
:105260009505BCF37CD14301919581959040680EE2
:10527000791EDBC00B81002321F0042D052909F4E0
:105280003BD109E916E00A8B1B8B0881003751F4EA
:1052900047D180819181A0E0B0E000E131D100E010
:1052A000098330C037D12EF42C5F15D1A281B38190
:1052B00004C02E5F10D1A0E0B0E008810F3611F4D9
:1052C00008E0ECCF053749F70AE0E8CF23D12EF408
:1052D0002C5FFDD06281738106C02E5FF8D0652FF0
:1052E000660F660B762FCA01DB0177234AF40DE2C5
:1052F00009839095A095B09581959F4FAF4FBF4F73
:105300000AE0FED03E0109E901D14E0109E91BD1B5
:10531000082F092B0A2B0B2B19F001E00B8705C076
:1053200000E00B87042D0529B9F006D1EA89FB8935
:10533000E00DF11D0491F30102933F01FDD014D162
:10534000012B022B032B89F7552032F40C8100230B
:1053500019F00DD101C0EBD08E0107561F4F9ED022
:10536000D4F30B81002309F460C00B8500FF5DC0FE
:105370000881083711F0083549F4F1D0F3010881AC
:105380000083EDD000E3F30100834FC00F3609F036
:105390004CC0F3010081003309F447C000E30293DD
:1053A0003F0143C081E0088102500883042D052994
:1053B00029F4A2D008C000E0088380E055201AF448
:1053C00006E0402E5524A7D02C5FACD0008111817F
:1053D000228133814BDE60E070E00E94FB2D18F4E7
:1053E0004DE2498330583E0144E1640E751E6C0C59
:1053F0007D1C4B814A938A934A814A93B301A2014F
:10540000DEDC48010C81002381F0B1D0840146D05C
:1054100064F48DD0FBCFA0D009EB16E00C871D877C
:105420006624772403E0802E992424014618570827
:10543000C414D5041CF480E090E007C09ED0C418CA
:10544000D50810E0C01AD10AC6010A81002321F450
:1054500001C045D00197EAF70981002331F034D02B
:1054600003C0F30101913F013DD00FEF400E501EEC
:105470005AF00C851D85012B27D099F3EC85F12F6F
:105480000591EC87FD87F0CF0A81002309F40FCE48
:1054900001C025D001970AF40ACEFBCF06191709DF
:1054A000041515050895F8010081F181E02F089594
:1054B000F70105917F010895F70104910895F7011F
:1054C000049100530A3008952F81388508952AD019
:1054D00040815181089526D08081918108952F8146
:1054E000388500E2E985FA8509950D811E810F5FF7
:1054F0001F4F0D831E83089555244424439408951B
:1055000010E00E871F87188B198B0895600E00E03E
:10551000701E089580FBF5010081118198010895A6
:10552000FADF2E5F3F4F20833183F801089500E3B7
:10553000F30102933F0108954E855F85688979895B
:105540009BDD0C94B42B800E00E0901E089501E0CA
:10555000E00E00E0F01E08950FEFE00EFBCF0FEF1E
:10556000600ED6CF0E94F92CC801D901089505D04C
:1055700010E02601401A510A08950981002311F014
:1055800001E0089500E0089501E010E00C94DC26AD
:1055900011231AF41195019510409801890108957D
:1055A00030580E94272B305808953F7741E00C94E3
:1055B000F72E07E50DBF02E00EBFC0EED1E00E945E
:1055C0008F2E002311F00E94DA2E0E94980C0E9468
:1055D000DC260C94DC26E199FECF08954F5F5F4FE7
:1055E000FADF4EBB5FBBE09A0895FADF0DB3089572
:1055F000F7DF0DB3F3DF1DB30895F2DF0DB3EEDF78
:105600001DB3ECDF2DB3EADF3DB308954F5F5F4F6D
:105610004EBB5FBBF894E29AE19A0FBE08950FB6B5
:10562000DADF0DBBF5CF0FB6D6DF0DBBF1DFD3DF71
:105630001DBBECCF0FB6CFDF0DBBEADFCCDF1DBB50
:10564000E5DFC9DF2DBBE2DFC6DF3DBBDFCF0E9458
:10565000712E280139013F7740E856E968E17BE483
:105660000E94132E10F4372D22C024D0372D0E9413
:10567000FB2DE0F4E89477F8372D21D0C801D9014B
:10568000A801B901820193010E94DC2C13D00E9471
:10569000F12D41F060E87FE38C019D010E94982C80
:1056A000C801D901B0588C019D0101C008D0E8E0C3
:1056B0000C94822E40E050E060E070E008950E947B
:1056C000462C0C94392C149F102D059F100D049F0F
:1056D000002D110D0895000F111F4A95E2F708954E
:1056E000169507954A95E2F70895159507954A95F9
:1056F000E2F7089500241124EFE0001F111F001CA1
:10570000111C0416150610F0041A150AEA95AAF7DA
:10571000001F111FA0010095109508955195419506
:1057200050400895FF27552312F4F160F7DF11234D
:1057300012F4F09507D00E947A2BF0FD03D0F1FD12
:10574000EDCF089511950195104008953695279550
:10575000179507954A95D2F708953595279517958A
:1057600007954A95D2F70895002411241001E0E22C
:10577000EA9592F0001F111F221F331F001C111CFD
:10578000221C331C041615062606370688F3041A55
:10579000150A260A370AECCF001F111F221F331FDC
:1057A000A001B10100951095209530950895FF272F
:1057B000772312F4F16015D0332312F4F09509D059
:1057C0000E94B42BF69508F404D0F69508F409C0AD
:1057D000089530952095109501951F4F2F4F3F4FFD
:1057E000089570956095509541955F4F6F4F7F4F2D
:1057F0000895FF27112477FB660F771F089409F49B
:10580000771F679517F8EE27002437FB220F331F09
:10581000089409F4331F279507F8089527FD0EC053
:10582000EE0F001F111F221F3A953230B8F73323B5
:1058300019F427FD31E002C027FF30E0E03821F401
:1058400000FF08940EF488940F4F1F4F2F4F3F4FC7
:10585000323038F4332319F427FD31E002C027FF3A
:1058600030E03F3F29F0220F000C3795279508952F
:10587000ACC0032E002012F40E94E92BE02F012F70
:10588000122F232F3EE9D1CF0024F8CFBCDF432FC6
:105890004F5748F04F3148F007FC91C03FE72FEFDA
:1058A0001FEF0FEF089533278CC0322F212F102FB9
:1058B0000E2F4F5141950E94AA2B07FE08950C947C
:1058C000E92BF901EE0FFF1F37FBFF3F31F0EF2B04
:1058D000E12BE02B8894B8940895E02BE12B21F084
:1058E00008949894B8940895989488943894089556
:1058F000FB01EE0FFF1F77FBFF3F31F0EF2BE52B96
:10590000E42B8894B8940895E42BE52B69F3E8CF51
:10591000EFDF68F021F43723262F8A010895372F0F
:10592000FBCFE6DF20F00BF008957327EAF751C0B4
:10593000C8DFE8F3B3F361F3DBDFC8F383F3A1F36C
:1059400058DF401751076207730731F4011411F152
:105950000024E89488942BC078F0332E372F732DD1
:10596000322E262F632D312E152F532D302E042F3E
:10597000432D302C012C132C371739F06695579591
:105980004795F795E0407395F7CFE7FBEE0FE0E022
:1059900010246AF0EF0F041F151F261F60F42795CF
:1059A00017950795E79508F4689433953ECFEF0B6C
:1059B000040B150B260B39CFE0E87E27B9CF302D2D
:1059C000307822271127002708953FE7302920E863
:1059D000F9CF3FEF2FEFF6CF8BDFD8F3D1F370780D
:1059E0003727089585DFA8F3A3F3F9CF3078372759
:1059F00093CF67DF70F383F3A9F37ADF50F3B3F348
:105A0000A9F3F7DE0124E8943F57E040370FEF1F7A
:105A100012F0D9F603C03A3E90F26894E0E00A92A0
:105A2000AA933A93AA27332422243327049FF00110
:105A3000059FF00D712D731F149FF00D711D221C19
:105A4000069F700D211C331C159F700D211C331EE9
:105A5000249F700D211C331E169F200C311CAA1F81
:105A6000259F200C311CA31F269F300CA11D3991AE
:105A70005EF43395A695379427947795F795E79537
:105A800033953130BCF316C0AA2322F0332351F4EE
:105A9000339510C0339571F4A991099096CFA7FD65
:105AA00009C03A95EE0FFF1F771F221C331CAA1F57
:105AB0003230A8F7E894FE2B09F068942A2F810170
:105AC000E72FA9910990BACE13DF10F00BF087CF22
:105AD00080CF0EDFE9F3E0F3032E072670CF032E0D
