:100000000C9434000C9449000C9449000C94490061
:100010000C9449000C9449000C9449000C9449003C
:100020000C9449000C9449000C9449000C9449002C
:100030000C9449000C9449000C9449000C9449001C
:100040000C9449000C9449000C9449000C9449000C
:100050000C9449000C9449000C9449000C944900FC
:100060000C9449000C94490011241FBECFEFD8E036
:10007000DEBFCDBF11E0A0E0B1E0E6EDF2E002C0EE
:1000800005900D92A630B107D9F70E9477000C9425
:1000900069010C9400009091C00095FFFCCF809303
:1000A000C600089594EA9093BC009091BC0097FF1D
:1000B000FCCF8093BB0084E88093BC008091BC009F
:1000C00087FFFCCF9091B900987F81E0983121F0B3
:1000D000903411F080E0089508958093BB0084E887
:1000E0008093BC008091BC0087FFFCCF0895CF9324
:1000F000DF93CDB7DEB72C970FB6F894DEBF0FBEF7
:10010000CDBF1092C50087E68093C40088E180933C
:10011000C10086E08093C2001092B90088E4809309
:10012000B80084E08093BC0084E9782E94E8692EBE
:10013000CE0101965C012AE0222E312C412C512C5B
:1001400080E90E94520081E00E946D0083EC0E94D1
:100150006D0083E80E946D007092BC0095E39A9553
:10016000F1F70000EFE3FCE93197F1F700C0000080
:1001700080E90E94520080E00E946D0081E90E94A7
:100180005200F4ECF093BC008091BC0087FFFCCFE0
:10019000F090BB006092BC008091BC0087FFFCCF58
:1001A000E090BB007092BC0025E32A95F1F70000B7
:1001B00000E011E0F80181918F01811143C0C70176
:1001C0006701FF0CEE08FF0897FF0BC08DE20E944D
:1001D0004B00F094E094D094C094C11CD11CE11C5D
:1001E000F11C450110E000E00F5F1F4FC701B60191
:1001F000A20191010E942801605DF40161934F0109
:1002000069017A01C114D104E104F10469F70A0D0E
:100210001B1DF80182918F010E944B000A151B05DE
:10022000C1F703E011E0F80181918F0181110DC048
:10023000FFEF23EC89E0F15020408040E1F700C05F
:1002400000007ECF0E944B00B5CF0E944B00EBCF49
:10025000052E97FB1EF400940E943F0157FD07D026
:100260000E94470107FC03D04EF40C943F015095C7
:100270004095309521953F4F4F4F5F4F0895909592
:100280008095709561957F4F8F4F9F4F0895A1E2A4
:100290001A2EAA1BBB1BFD010DC0AA1FBB1FEE1F00
:1002A000FF1FA217B307E407F50720F0A21BB30B4B
:1002B000E40BF50B661F771F881F991F1A9469F7C7
:1002C00060957095809590959B01AC01BD01CF0123
:0602D0000895F894FFCF31
:0602D600523D000D0A007C
:00000001FF
