:100000000C9434000C9449000C9449000C94490061
:100010000C9449000C9449000C9449000C9449003C
:100020000C9449000C9449000C9449000C9449002C
:100030000C9449000C9449000C9449000C9449001C
:100040000C9449000C9449000C9449000C9449000C
:100050000C9449000C9449000C9449000C944900FC
:100060000C9449000C94490011241FBECFEFD8E036
:10007000DEBFCDBF11E0A0E0B1E0E0E6F2E002C0FB
:1000800005900D92A031B107D9F70E945E000C9443
:100090002E010C9400009091C00095FFFCCF80933E
:1000A000C6000895CF93DF93EC018991811103C0BD
:1000B000DF91CF9108950E944B00F7CFCF93DF934C
:1000C000CDB7DEB72C970FB6F894DEBF0FBECDBF0D
:1000D0001092C50087E68093C40088E18093C10038
:1000E00086E08093C20080E091E00E94520084B1DB
:1000F000806384B95A9A569A83E884BD83E085BDAB
:1001000080E487BD90E4992E27EC822E8E010F5F4C
:100110001F4F3AE0432E512C612C712C40E2342EBB
:1001200084E6E82EF12C4A994EC02C9A8091C000AA
:1001300087FF3AC08091C600813609F046C08BE047
:1001400091E00E94520090927C0080927A0080910F
:100150007A0086FDFCCF609178007091790090E084
:1001600080E05801D12CC12C2FEFC21AD20AA30172
:1001700092010E94ED00605DF50161935F01B9019C
:10018000CA01611571058105910571F7C00ED11E77
:10019000F60182916F010E944B00C016D106C1F793
:1001A00088E091E00E9452008FE99FE00197F1F70B
:1001B00000C0000091E0E91AF10809F0B4CF85B160
:1001C000832585B9ADCF2C98B1CF9FE9980F9A318F
:1001D00008F480520E944B00E7CF052E97FB1EF4D7
:1001E00000940E94040157FD07D00E940C0107FCF7
:1001F00003D04EF40C940401509540953095219510
:100200003F4F4F4F5F4F0895909580957095619542
:100210007F4F8F4F9F4F0895A1E21A2EAA1BBB1B41
:10022000FD010DC0AA1FBB1FEE1FFF1FA217B307C2
:10023000E407F50720F0A21BB30BE40BF50B661FD8
:10024000771F881F991F1A9469F76095709580959C
:1002500090959B01AC01BD01CF010895F894FFCFAB
:10026000506C617461204F4B0D0A0041303D00001D
:00000001FF
