:100000000C9434000C9449000C9449000C94490061
:100010000C9449000C9449000C9449000C9449003C
:100020000C9449000C9449000C9449000C9449002C
:100030000C9449000C9449000C9449000C9449001C
:100040000C9449000C9449000C9449000C9449000C
:100050000C9449000C9449000C9449000C944900FC
:100060000C9449000C94490011241FBECFEFD8E036
:10007000DEBFCDBF11E0A0E0B1E0E4E9F3E002C0F3
:1000800005900D92A231B107D9F70E94DD000C94C2
:10009000C8010C9400009091C00095FFFCCF8093A4
:1000A000C6000895CF93DF93EC018991811103C0BD
:1000B000DF91CF9108950E944B00F7CF4F925F924E
:1000C0006F927F928F929F92AF92BF92CF92DF9268
:1000D000EF92FF920F931F93CF93DF93CDB7DEB7CD
:1000E0002C970FB6F894DEBF0FBECDBF6B017C011D
:1000F000F7FE0BC08DE20E944B00F094E094D09488
:10010000C094C11CD11CE11CF11CCE0101965C0104
:100110004C0110E000E08AE0482E512C612C712C3B
:100120000F5F1F4FC701B601A30192010E94870113
:10013000605DF40161934F0169017A01C114D1043A
:10014000E104F10469F70A0D1B1DF80182918F018A
:100150000E944B00A016B106C1F72C960FB6F8947A
:10016000DEBF0FBECDBFDF91CF911F910F91FF90EA
:10017000EF90DF90CF90BF90AF909F908F907F9047
:100180006F905F904F9008951092850010928400B8
:1001900099B192FB992790F9981305C0809184003A
:1001A0009091850008952091840030918500213937
:1001B000314070F38FEF9FEF0895CF93DF9300D01E
:1001C00000D01F92CDB7DEB71092C50087E68093AE
:1001D000C40088E18093C10086E08093C200109241
:1001E000800082E0809381002FEF81EE94E0215027
:1001F00080409040E1F700C0000095E0B92EFE017C
:1002000031967F01F7012B2D11922A95E9F7529A29
:100210005A988FE39FE10197F1F700C000005298D0
:100220005A9A80E00E94C400019611F400E00BC0CD
:1002300081E00E94C4000196C9F380E00E94C400DE
:1002400001E0019699F310E0002309F45DC0183233
:10025000E9F59B812C8189813A81830F890F820F77
:100260003D81831351C0692F70E0762F6627662782
:100270007F776B01C22A97FF03C0D194C194D10844
:1002800009811A8180E091E00E945200B601DD0CE4
:10029000880B990B0E945E0083E091E00E9452005F
:1002A000702F612F072E000C880B990B0E945E00A7
:1002B0008EE091E00E9452002FEF89E698E12150F4
:1002C00080409040E1F700C000009CCF81E00E9498
:1002D000C4000196C9F080E00E94C4009C01019610
:1002E00011F4173289F4E12FE695E695E695EE0DC7
:1002F000FF2DF11D9081990F2135310518F4908360
:100300001F5FA2CF9160FBCF87E091E0D3CF052E96
:1003100097FB1EF400940E949E0157FD07D00E9497
:10032000A60107FC03D04EF40C949E015095409515
:10033000309521953F4F4F4F5F4F08959095809591
:10034000709561957F4F8F4F9F4F0895A1E21A2EB0
:10035000AA1BBB1BFD010DC0AA1FBB1FEE1FFF1F69
:10036000A217B307E407F50720F0A21BB30BE40BB9
:10037000F50B661F771F881F991F1A9469F7609500
:100380007095809590959B01AC01BD01CF010895BA
:04039000F894FFCF0F
:10039400543D0020483D00444854204552520D0A23
:0203A400000057
:00000001FF
