:100000000C9434000C9449000C9449000C94490061
:100010000C9449000C9449000C9449000C9449003C
:100020000C9449000C9449000C9449000C9449002C
:100030000C9449000C9449000C9449000C9449001C
:100040000C9449000C9449000C9449000C9449000C
:100050000C9449000C9449000C9449000C944900FC
:100060000C9449000C94490011241FBECFEFD8E036
:10007000DEBFCDBF11E0A0E0B1E0E2E8F1E002C0F8
:1000800005900D92AE30B107D9F70E947D000C9417
:10009000BF000C94000080FF17C05D9A81FF16C05E
:1000A0005C9A82FF15C05B9A83FF14C05A9A2B9A00
:1000B00085E08A95F1F700002B9887EC90E0019796
:1000C000F1F700C0000008955D98E8CF5C98E9CF93
:1000D0005B98EACF5A98EBCFCF93C82F662359F09D
:1000E0002C9A8C2F82958F700E944B008C2F8F70D2
:1000F000CF910C944B002C98F4CF84B1886184B9D3
:100100008AB18C638AB92FEF80E792E0215080405A
:100110009040E1F700C000002C9883E00E944B0063
:100120008FE19EE40197F1F700C0000083E00E9498
:100130004B0083E00E944B0082E00E944B0060E095
:1001400088E20E946C0060E08CE00E946C0060E03D
:1001500081E00E946C008FE39FE10197F1F700C0FE
:10016000000060E086E00E946C00C0E0D1E0899170
:10017000811101C0FFCF61E00E946C00F8CFF894BC
:02018000FFCFAF
:0E018200506172616C6C656C204C434400004F
:00000001FF
