:100000000C9434000C9449000C9449000C94490061
:100010000C9449000C9449000C9449000C9449003C
:100020000C9449000C9449000C9449000C9449002C
:100030000C9449000C9449000C9449000C9449001C
:100040000C9449000C9449000C9449000C9449000C
:100050000C9449000C9449000C9449000C944900FC
:100060000C9449000C94490011241FBECFEFD8E036
:10007000DEBFCDBF11E0A0E0B1E0ECEEF1E002C0E8
:1000800005900D92AC31B107D9F70E949A000C94FB
:10009000F4000C94000094EA9093BC009091BC0092
:1000A00097FFFCCF9EE49093BB0094E89093BC0034
:1000B0009091BC0097FFFCCF9091B900886080932D
:1000C000BB0084E88093BC008091BC0087FFFCCF1C
:1000D00084E98093BC0085E38A95F1F700000895D8
:1000E000CF93DF9390E1899FE0011124C62B8C2FE1
:1000F00084600E944B0085E08A95F1F700008C2F08
:100100000E944B0087EC90E00197F1F700C00000DF
:10011000DF91CF910895CF93DF93C82FD62F82958B
:100120008F700E9470006D2F8C2F8F70DF91CF9198
:100130000C9470001092B90088E48093B80084E0B9
:100140008093BC002FEF80E792E0215080409040E8
:10015000E1F700C0000060E083E00E9470008FE1E2
:100160009EE40197F1F700C0000060E083E00E9488
:10017000700087E592E00197F1F700C0000060E0B1
:1001800083E00E94700060E082E00E94700060E006
:1001900088E20E948B0060E08CE00E948B0060E0AF
:1001A00081E00E948B008FE39FE10197F1F700C08F
:1001B000000060E086E00E948B00C0E0D1E0899101
:1001C00081110AC060E080EC0E948B00CEE0D1E09B
:1001D0008991811105C0FFCF61E00E948B00EFCFB4
:0C01E00061E00E948B00F4CFF894FFCF88
:1001EC0048656C6C6F2C20506C6174612100493235
:0C01FC0043204C434420313630320000D8
:00000001FF
