:100000000C9434000C9449000C9449000C94490061
:100010000C9449000C9449000C9449000C9449003C
:100020000C9449000C9449000C9449000C9449002C
:100030000C9449000C9449000C9449000C9449001C
:100040000C9449000C9449000C9449000C9449000C
:100050000C9449000C9449000C9449000C944900FC
:100060000C9449000C94490011241FBECFEFD8E036
:10007000DEBFCDBF11E0A0E0B1E0E2E4F2E002C0FB
:1000800005900D92A630B107D9F70E9452000C944A
:100090001F010C9400009091C00095FFFCCF80934D
:1000A000C6000895CF93DF93CDB7DEB72C970FB678
:1000B000F894DEBF0FBECDBF1092C50087E68093D7
:1000C000C40088E18093C10086E08093C20084B1BF
:1000D000846284B92A9A8FE39CE90197F1F700C002
:1000E0000000FE0131966F013AE0832E912CA12C85
:1000F000B12C2A98FAE0FA95F1F700C080E110E0FF
:1001000000E02D9A25E02A95F1F70000000F111F5D
:1001100093B194FB442440F8512C042915292D98BF
:1001200095E09A95F1F70000815059F72A9A90E0EE
:10013000E92E91E0F92EF70181917F01811138C0FC
:1001400083E0169507958A95E1F7B80190E080E085
:100150003601F12CE12CFFEFEF1AFF0AA501940103
:100160000E94DE00605DF30161933F01B901CA01A5
:10017000611571058105910571F7EC0CFD1CF70106
:1001800082917F010E944B00EC14FD04C1F703E053
:1001900011E0F80181918F0181110DC0FFEF24E37F
:1001A0008CE0F15020408040E1F700C00000A1CF7A
:1001B0000E944B00C0CF0E944B00EBCF052E97FB57
:1001C0001EF400940E94F50057FD07D00E94FD0028
:1001D00007FC03D04EF40C94F500509540953095F3
:1001E00021953F4F4F4F5F4F0895909580957095A3
:1001F00061957F4F8F4F9F4F0895A1E21A2EAA1B42
:10020000BB1BFD010DC0AA1FBB1FEE1FFF1FA217C6
:10021000B307E407F50720F0A21BB30BE40BF50BC3
:10022000661F771F881F991F1A9469F7609570954C
:10023000809590959B01AC01BD01CF010895F89484
:02024000FFCFEE
:06024200513D000D0A0011
:00000001FF
