:100000000C9434000C9449000C9449000C94490061
:100010000C9449000C9449000C9449000C9449003C
:100020000C9449000C9449000C9449000C9449002C
:100030000C9449000C9449000C9449000C9449001C
:100040000C9449000C9449000C9449000C9449000C
:100050000C9449000C9449000C9449000C944900FC
:100060000C9449000C94490011241FBECFEFD8E036
:10007000DEBFCDBF11E0A0E0B1E0E6EEF1E002C0EE
:1000800005900D92AE30B107D9F70E9471000C9423
:10009000F1000C9400008093BB0084E88093BC00C6
:1000A0008091BC0087FFFCCF089584EA8093BC0058
:1000B0008091BC0087FFFCCF88E78093BB0084E879
:1000C0008093BC008091BC0087FFFCCF9091B90069
:1000D000987F81E0983121F0903411F080E008950C
:1000E0000895CF93DF93CDB7DEB72E970FB6F89470
:1000F000DEBF0FBECDBF1092B90088E48093B80078
:1001000084E08093BC008FE39CE90197F1F700C085
:1001100000008EE0E0E0F1E0DE01119601900D922A
:100120008A95E1F78E010F5F1F4F7E019FE0E90E78
:10013000F11CE4E9DE2EF801C1908F010E94550008
:1001400080E00E944B008C2D0E944B00D092BC009E
:10015000F5E3FA95F1F700000E151F0561F70E940F
:10016000550080E40E944B0010E000E0EE24E39490
:10017000F12C402F902F9F779801220F232F221FC1
:10018000330B3195522F8FEF992329F081E09F3760
:1001900009F080E08195511120C081609695969577
:1001A0009695220F331F9217130639F44770970163
:1001B00001C0220F4A95EAF7822B0E944B000F5F85
:1001C0001F4F011584E01807A1F684E98093BC0055
:1001D00095E39A95F1F70000FFCF5730F9F6806864
:0601E000DDCFF894FFCF13
:0E01E600AE200021007F2200078D14A1C8AFBB
:00000001FF
