:100000000C9434000C9449000C9449000C94490061
:100010000C9449000C9449000C9449000C9449003C
:100020000C9449000C9449000C9449000C9449002C
:100030000C9449000C9449000C9449000C9449001C
:100040000C9449000C9449000C9449000C9449000C
:100050000C9449000C9449000C9449000C944900FC
:100060000C9449000C94490011241FBECFEFD8E036
:10007000DEBFCDBF11E0A0E0B1E0E6ECF1E002C0F0
:1000800005900D92A430B107D9F70E947A000C9424
:10009000E1000C9400009091C00095FFFCCF80938C
:1000A000C600089594EA9093BC009091BC0097FF1D
:1000B000FCCF8093BB0084E88093BC008091BC009F
:1000C00087FFFCCF9091B900987F81E0983121F0B3
:1000D000903411F080E008950895CF93C82F829551
:1000E0008F70805D0E944B008C2F8F70805DCF9150
:1000F0000C944B001092C50087E68093C40088E101
:100100008093C10086E08093C2001092B90088E419
:100110008093B80084E08093BC00C4E8D4EC84E908
:10012000F82E80ED0E9452001092BB00C093BC00DC
:100130008091BC0087FFFCCF81ED0E945200D093DC
:10014000BC008091BC0087FFFCCF1091BB00D09316
:10015000BC008091BC0087FFFCCF0091BB00C09326
:10016000BC008091BC0087FFFCCF8091BB00F09267
:10017000BC0025E32A95F1F700008F730E946D0003
:100180008AE30E944B00802F0E946D008AE30E9448
:100190004B00812F8F770E946D0000E011E0F80185
:1001A00081918F0181110AC0FFEF23ED80E3F150AF
:1001B00020408040E1F700C00000B3CF0E944B0018
:0601C000EECFF894FFCF22
:0401C6000D0A00001E
:00000001FF
