:100000000C9434000C9449000C9449000C94490061
:100010000C9449000C9449000C9449000C9449003C
:100020000C9449000C9449000C9449000C9449002C
:100030000C9449000C9449000C9449000C9449001C
:100040000C9449000C9449000C9449000C9449000C
:100050000C9449000C9449000C9449000C944900FC
:100060000C9449000C94490011241FBECFEFD8E036
:10007000DEBFCDBF11E0A0E0B1E0E6E1F7E002C0F5
:1000800005900D92A037B107D9F70E94BA010C94E0
:1000900089030C9400009091C00095FFFCCF8093E1
:1000A000C6000895CF93DF93EC018991811103C0BD
:1000B000DF91CF9108950E944B00F7CF4F925F924E
:1000C0006F927F928F929F92AF92BF92CF92DF9268
:1000D000EF92FF920F931F93CF93DF93CDB7DEB7CD
:1000E0002C970FB6F894DEBF0FBECDBF6B017C011D
:1000F000F7FE0BC08DE20E944B00F094E094D09488
:10010000C094C11CD11CE11CF11CCE0101965C0104
:100110004C0110E000E08AE0482E512C612C712C3B
:100120000F5F1F4FC701B601A30192010E94480350
:10013000605DF40161934F0169017A01C114D1043A
:10014000E104F10469F70A0D1B1DF80182918F018A
:100150000E944B00A016B106C1F72C960FB6F8947A
:10016000DEBF0FBECDBFDF91CF911F910F91FF90EA
:10017000EF90DF90CF90BF90AF909F908F907F9047
:100180006F905F904F9008951092850010928400B8
:1001900099B192959170981305C0809184009091C7
:1001A00085000895209184003091850021393140E7
:1001B00078F38FEF9FEF089594EA9093BC009091AD
:1001C000BC0097FFFCCF9EE49093BB0094E8909313
:1001D000BC009091BC0097FFFCCF9091B900886063
:1001E0008093BB0084E88093BC008091BC0087FFB3
:1001F000FCCF84E98093BC0085E38A95F1F7000089
:100200000895CF93DF9390E1899FE0011124C62BDD
:100210008C2F84600E94DC008C2FDF91CF910C9496
:10022000DC00CF93DF93C82FD62F82958F700E946A
:1002300001016D2F8C2F8F70DF91CF910C940101F4
:10024000CF93DF93EC018991811103C0DF91CF91AE
:10025000089561E00E941101F6CF2F923F924F92D4
:100260005F926F927F928F929F92AF92BF92CF9246
:10027000DF92EF92FF920F931F93CF93DF93CDB74F
:10028000DEB72D970FB6F894DEBF0FBECDBF2B01A2
:100290003C014D87DC01CB0177FE07C088279927F9
:1002A000DC0184199509A609B709BC01CD01F12C1F
:1002B000E12C9E012F5F3F4F69012AE0822E912C95
:1002C000A12CB12C87010F5F1F4F16012E0C3F1C74
:1002D000A50194010E944803605DF1016083B901AA
:1002E000CA01FD85FF2309F43FC00130110531F437
:1002F0002EE22A8302E010E07801E4CF6115710557
:1003000081059105C9F702301105B1F377FE08C0E8
:10031000F601E00FF11F8DE2808387010E5F1F4F12
:100320000C0D1D1D61E0F80182918F010E941101E9
:10033000C016D106B9F72D960FB6F894DEBF0FBEE2
:10034000CDBFDF91CF911F910F91FF90EF90DF9084
:10035000CF90BF90AF909F908F907F906F905F9065
:100360004F903F902F90089561157105810591057B
:1003700019F6CCCFCF93DF9300D000D000D0CDB70B
:10038000DEB71092C50087E68093C40088E18093B1
:10039000C10086E08093C2001092B90088E4809387
:1003A000B80094E09093BC0084B1886384B9569AF5
:1003B0005A9A83E884BD83E085BD82E08093B000D3
:1003C0009093B1009CE79093B300109280008093CB
:1003D00081002FEF80E792E0215080409040E1F7CC
:1003E00000C0000060E083E00E940101EFE1FEE454
:1003F0003197F1F700C0000060E083E00E94010146
:1004000060E083E00E94010160E082E00E9401015F
:1004100060E088E20E94110160E08CE00E9411011E
:1004200060E081E00E9411018FE39FE10197F1F705
:1004300000C0000060E086E00E94110184E291E0CB
:100440000E94200185E391E00E94520094E0292E51
:10045000312CF12CE12CFE0131966F0189B1F82F7E
:10046000F470FE8382FDABC02C9A8091B000806452
:100470008093B000320C8CEF830D853F08F02194FF
:1004800037BC8FE39CE90197F1F700C000009FEFB4
:10049000E91AF90AC70162E370E00E943403892B6C
:1004A000E9F685B1E0E28E2785B9F60125E01192E3
:1004B0002A95E9F7549A5C988FE39FE10197F1F749
:1004C00000C0000054985C9A80E00E94C40001962D
:1004D00009F07DC010E000E0912C812C712CF0E43B
:1004E000F0937C0027EC20937A0080917A0086FDBF
:1004F000FCCF409078005090790060E080E80E9446
:100500001101092C000CAA08BB0889E591E07720AD
:10051000E9F08DE491E00E94200141E0C501B401C1
:100520000E942D0161E08FED0E94110180E591E0B4
:100530000E942001C8016AE070E00E94340390E04C
:1005400080E040E00E942D0185E591E00E942001BD
:1005500060E080EC0E9411018BE691E00E94200196
:10056000712C612C40E0C301B2010E942D018E81EB
:10057000811174C080E091E00E9420018DE491E03F
:100580000E945200C501B4010E945E0081E591E025
:100590000E945200B80190E080E00E945E008AE66E
:1005A00091E00E945200C301B2010E945E009E8150
:1005B000911157C082E191E00E9452004FCF2C98D8
:1005C0008091B0008F7B8093B0002B9853CF81E057
:1005D0000E94C400019609F47DCF80E00E94C4000F
:1005E000019609F477CF10E081E00E94C4000196E3
:1005F00009F470CF80E00E94C400E12FE695E695F3
:10060000E695EC0DFD2DF11D2081220F8135910520
:1006100018F520831F5F183239F709811A811027D6
:10062000012710279B812C8189813A81830F890FB3
:10063000820F3D8183134ECF892E912C982C8824D4
:100640008824E89497F8822A97FF03C091948194B4
:1006500091087724739443CF2160DBCF89E091E048
:100660008BCF8BE191E0A8CFAA1BBB1B51E107C048
:10067000AA1FBB1FA617B70710F0A61BB70B881F32
:10068000991F5A95A9F780959095BC01CD010895C1
:10069000052E97FB1EF400940E945F0357FD07D0C0
:1006A0000E94670307FC03D04EF40C945F0350953F
:1006B0004095309521953F4F4F4F5F4F089590954E
:1006C0008095709561957F4F8F4F9F4F0895A1E260
:1006D0001A2EAA1BBB1BFD010DC0AA1FBB1FEE1FBC
:1006E000FF1FA217B307E407F50720F0A21BB30B07
:1006F000E40BF50B661F771F881F991F1A9469F783
:1007000060957095809590959B01AC01BD01CF01DE
:060710000895F894FFCFEC
:100716002042544E3A312020002042544E3A302096
:1007260020002042544E3D310D0A002042544E3DD9
:10073600300D0A00506C6174612073696D756C61CF
:1007460074696F6E00506C6174612073696D756CAD
:100756006174696F6E2064656D6F0D0A00543D000B
:100766004320483D002520200044485432323A2098
:100776006E6F20646174612020002041303D0000CE
:00000001FF
