:100000000C9434000C9449000C9449000C94490061
:100010000C9449000C9449000C9449000C9449003C
:100020000C9449000C9449000C9449000C9449002C
:100030000C9449000C9449000C9449000C9449001C
:100040000C9449000C9449000C9449000C9449000C
:100050000C9449000C9449000C9449000C944900FC
:100060000C9449000C94490011241FBECFEFD8E036
:10007000DEBFCDBF11E0A0E0B1E0E8E6F2E002C0F3
:1000800005900D92A630B107D9F70E9452000C944A
:1000900032010C9400009091C00095FFFCCF80933A
:1000A000C6000895CF93DF93CDB7DEB72C970FB678
:1000B000F894DEBF0FBECDBF1092C50087E68093D7
:1000C000C40088E18093C10086E08093C200219A39
:1000D0001092800082E08093810084E7682E712C6A
:1000E000CE0101967C019AE0892E912CA12CB12C95
:1000F000299A90E49A95F1F7299810928500109228
:100100008400189907C08091840090918500813601
:100110009A4EB8F31092850010928400189B07C085
:10012000809184009091850081369A4EB8F3C090FA
:100130008400D090850000E011E0F80181918F01EA
:10014000811135C0C601B3010E94DD0090E080E05E
:10015000670110E000E00F5F1F4FA50194010E94AE
:10016000F100605DF60161936F01B901CA0161158B
:1001700071058105910579F70E0D1F1DF80182911A
:100180008F010E944B000E151F05C1F703E011E01F
:10019000F80181918F0181110DC0FFEF2DEE82E0FA
:1001A000F15020408040E1F700C00000A1CF0E9444
:1001B0004B00C3CF0E944B00EBCFAA1BBB1B51E1EE
:1001C00007C0AA1FBB1FA617B70710F0A61BB70BC7
:1001D000881F991F5A95A9F780959095BC01CD016C
:1001E0000895052E97FB1EF400940E94080157FD08
:1001F00007D00E94100107FC03D04EF40C940801B4
:1002000050954095309521953F4F4F4F5F4F089542
:1002100090958095709561957F4F8F4F9F4F089572
:10022000A1E21A2EAA1BBB1BFD010DC0AA1FBB1FFA
:10023000EE1FFF1FA217B307E407F50720F0A21B6C
:10024000B30BE40BF50B661F771F881F991F1A94D9
:1002500069F760957095809590959B01AC01BD0103
:08026000CF010895F894FFCFCF
:06026800443D000D0A00F8
:00000001FF
